:0400000002002132A7
:03000B00020137B8
:0100130032BA
:03001B000200B42C
:20007A007521D475222F7523807524BC7525337526807527A4752837752980752A8C752BE4
:07009A003B752C8002001EE3
:03001E00020C646D
:2000A100AE82AF837532008E338F34753201E53270FC22C020C0E0C0F0C082C083C007C029
:2000C10006C005C004C003C002C001C000C0D075D000C37482852FF063F08095F050327509
:2000E1002F00D294E52E30E214750E03758203122A9F750E04758204122A9F8012750E0361
:20010100758203122A9F750E04758208122A9F052E052F758D07758BF0D0D0D000D001D037
:2001210002D003D004D005D006D007D083D082D0F0D0E0D02032C0E0C0D074012530F5303D
:20014100E43531F531E5326011153374FFB533021534E53345347002F532758C1F758AF07F
:20016100D0D0D0E0327E007F00904021747FF09040227401F0E4F536F537904020E0FB20AE
:20018100E7F8AB3674082BF511751200751300758200C007C0061226E5D006D0078E028F75
:2001A1000378007900904020E0FD20E7F89040237411F09040287401F00ABA00010B08B829
:2001C100000109C3E89428E96480948040D78A068B070536E4B536020537C3E5369418E5DC
:2001E10037648094804093E4F538F539E4F536F537904020E0F920E7F8A936740929F5112F
:20020100751200751300758200C007C0061226E5D006D0078E008F017C007D00904020E099
:20022100FB20E7F8E824CBF582E93452F583E493C454F0FB90402374014BF0904028740104
:20024100F008B80001090CBC00010DC3EC9428ED6480948040C6880689070536E4B536028D
:200261000537C3E5369416E5376480948050030201F27C887D13EC24FFFAED34FFFB8A0417
:200281008B05EA4B70F0751106F512853882853983122EF2858211858312900370122D2B54
:2002A100AE82AF830538E4B538020539C3E5396480948150030201ED2212259CE4FEFFF5A5
:2002C10030F531C3E5309401E531940040F57C007D007A007B00EA2459F582EB3447F583D1
:2002E100E493F9700302039CB90A0C7E007F000CBC00010D020394904020E0F920E7F88EE8
:20030100828C01740829F511751200751300C007C006C005C004C003C0021226E5750F01D6
:20032100758202122B1FD002D003D004D005D006D007904020E0F920E7F8EA2459F582EBDB
:200341003447F583E493F9904021F09040227401F09040237471F09040287401F00EBE0010
:20036100010FE4F530F531C3E5309401E531940040F5750E01758202C007C006C005C0045E
:20038100C003C002122A9FD002D003D004D005D006D0070ABA00010B0202D7900082C0077D
:2003A100C0061200A112259C7404C0E07419C0E090435C75F08012287E15811581E4C0E02F
:2003C1007404C0E07419C0E0740AC0E0758207122707E58124FCF58190001E1200A1D00648
:2003E100D007E4F542F543FAFBF53CF53DF53EF53F754401F545F546F547E53C2542FCE53F
:200401003D3543FD7511147512008C828D83C007C006C003C002122EF2AC82AD83D002D0A6
:2004210003E53C2AF540E53D3BF541751114751200854082854183C005C004C003C00212D4
:200441002EF2858240858341D002D003D004D005D006D007904020E0F920E7F890402274C2
:2004610001F09040237437F08E82A83C740828F511751200751300C005C004C003C002122F
:2004810026E5D002D003D004D00574075C7900C454F0F8904023740748F0E4F53AF53BC306
:2004A100E53A9428E53B648094805040904020E0F920E7F8EC2444F582ED3447F583E493CE
:2004C100F9904021F09040287401F00CBC00010DEC2444F8ED3447F988828983E493700262
:2004E100FCFD053AE4B53AB7053B80B3904020E0F920E7F8A83C7417C3982408F51175127B
:2005010000751300758200C005C004C003C0021226E5D002D003D004D005530407ECC45480
:20052100F0FC90402374074CF07C007D00C3EC9428ED648094805046904020E0F920E7F87D
:20054100E5402444F582E5413447F583E493F9904021F09040287401F00540E4B5400205AA
:2005610041E5402444F8E5413447F988828983E4937004F540F5410CBC00B20D80AF8C0666
:200581008D07053CE4B53C02053DC3E53C9544E53D64808545F063F08095F050030203FB44
:2005A1000542E4B542020543C3E5429414E543648094804005E4F542F5437414C39542FA68
:2005C100E49543FB900001C007C006C003C0021200A1D002D003D006D007E4F53CF53D056F
:2005E1003EB53E02053FC37410953E7480853FF063F08095F0501AC3E544940AE545648067
:20060100948050080544E4B544020545E4F53EF53FC3E544940AE545648094804008054671
:20062100E4B546020547C3E544940AE5456480948050030203FBC3E5469480E5479400507B
:20064100030203FB22C010E581F510241FF581753500758200122978E5102405FF7E00EEA3
:200661002FF9EE90676B93FDF70EBE190040F07E00EE75F00AA4FD7C00EC75F00AA4F582F7
:20068100C007C006C005C004E4C0E0740AC0E0C0E0C005122707E58124FCF581D004D00557
:2006A100D006D0070CBC040040CF0EBE030040C1E510241EF87600087600E510241EF8741B
:2006C1000356FB7C00E4BB0304BC000104FAA81008E4BB0204BC000104F6A81008A910094A
:2006E10009E6F7E5102403F8A602E5102404F8A602BB0106BC0003EB8001E4FC7B00EB2F38
:20070100F98706EB2B25E0F5117512008E82C007C006C004C003C002121B19D002D003D009
:2007210004D006D00774035BFD24FC4057ED2D900734738006800E802280391EBE5000404E
:20074100437E4F803FA81008E67006EA7003EC60331EBE5000402D7E4F8029A8100808E614
:200761007008E5102404F8E6601A1EBE500040147E4F8010E5102403F8E660081EBE500020
:2007810040027E4FEB2FF8A606EB2B25E0F5117512018E82C007C004C003C002121B19D0AC
:2007A10002D003D004D0070BBB190050030206FFE510241EF806B600020806E510241EF855
:2007C100C3E694F408E6940550030206BB851081D01022C010E581F510241CF5817582004A
:2007E1001229787F00EF75F00AA4FE7D00ED75F00AA4F582C007C006C005E4C0E0740AC0BE
:20080100E0C0E0C006122707E58124FCF581D005D006D0070DBD040040D30FBF030040C51C
:20082100E5102403F87600087600E5102403F8C3E6946408E6648094804003020C5BE51073
:200841002403F88682088683122E60AA82AB83ACF0FD740AC0E074D7C0E07423C0E0743DDB
:20086100C0E08A828B838CF0ED122BDCAA82AB83ACF0FDE58124FCF581C002C003C004C043
:2008810005900000E4F5F074C0122DBEAA82AB83ACF0FDE58124FCF581E5102409F8A60217
:2008A10008A60308A60408A605E4C0E0C0E0C0E0C0E0E5102409F886820886830886F00804
:2008C100E6122CFBE58124FCF581E58224FF9200403C740AC0E074D7C0E074A3C0E0743CF4
:2008E100C0E0E5102409F886820886830886F008E6122CFBAF82E58124FCF581EF6053E5CB
:20090100102409F8E4F608F608F608F68044E5102409F8860408860508860608E6B2E7FFB8
:20092100740AC0E074D7C0E074A3C0E0743CC0E08C828D838EF0EF122CFBAF82E58124FC2B
:20094100F581EF600DE5102409F8E4F608F608F608F6A810087600087600A81008C3E69425
:200961005008E6648094804003020C4DA810088682088683122E60AA82AB83ACF0FD74CDF5
:20098100C0E014C0E0744CC0E0743DC0E08A828B838CF0ED122BDCAA82AB83ACF0FDE5815C
:2009A10024FCF581C002C003C004C00590000075F02074C0122DBEC8E5102405C8A682086E
:2009C100A68308A6F008F6E58124FCF581E510240DF8E4F608F608F608F6E5102411F8E45D
:2009E100F608F608F608F6E5102415F8E4F608F608F608F6E5102419F8E4F608F608F60804
:200A0100F67A007B00C3EA9414EB648094804003020C0FC003C002E5102419F8E6C0E00815
:200A2100E6C0E008E6C0E008E6C0E0E5102415F886820886830886F008E6122DBEAC82AD90
:200A410083AEF0FFE58124FCF581E4C0E07424C0E07474C0E07449C0E08C828D838EF0EF4D
:200A6100122CFBE58124FCF581D002D003E58224FF92004003020C0FC003C002E510240D74
:200A8100F8E6C0E008E6C0E008E6C0E008E6C0E0900000E4F5F07440122BDCAC82AD83AEFB
:200AA100F0FFE58124FCF581E5102411F8E6C0E008E6C0E008E6C0E008E6C0E08C828D83DA
:200AC1008EF0EF122BDCAC82AD83AEF0FFE58124FCF581E5102409F8E6C0E008E6C0E00862
:200AE100E6C0E008E6C0E08C828D838EF0EF122DBEAC82AD83AEF0FFE58124FCF581E5106D
:200B01002411F8A60408A60508A60608A607E5102419F8E6C0E008E6C0E008E6C0E008E627
:200B2100C0E0E5102415F886820886830886F008E6122BD1AC82AD83AEF0FFE58124FCF5E5
:200B410081E5102405F8E6C0E008E6C0E008E6C0E008E6C0E08C828D838EF0EF122DBEAE97
:200B610082AF83ACF0FDE58124FCF581E510240DF8A60608A60708A60408A605E510240D21
:200B8100F8E6C0E008E6C0E008E6C0E008E6C0E0E510240DF886820886830886F008E61277
:200BA1002BDCAC82AD83AEF0FFE58124FCF581E5102415F8A60408A60508A60608A607E565
:200BC100102411F8E6C0E008E6C0E008E6C0E008E6C0E0E5102411F886820886830886F0EE
:200BE10008E6122BDCAC82AD83AEF0FFE58124FCF581D002D003E5102419F8A60408A605CA
:200C010008A60608A6070ABA00010B020A06BA1405BB0002802A7511027512008A828B8325
:200C2100122EF2E5828583F045F06014A810088606E5102403F886117512018E82121B19A4
:200C4100A8100806B60002080602095BE5102403F806B60002080602082B900000851081E6
:200C6100D01022122635122BA4532DFD902000E52DF0E4F5A8F530F531758911D28ED28C5B
:200C8100D2ABD2A9D2AFE4F535C0E0740AC0E0C0E003C0E075820F122707E58124FCF58189
:200CA1007F00EF24F940FBEF2F2F900CAF73020CC4020D52020E16020E1E020EA1021154C3
:200CC100020E0B12259C903F7475F08012278E7D007E00E4F548F5498D02EA2AFAE548759D
:200CE100F00AA4F582C006C005E4C0E07402C0E0740AC0E0C002122707E58124FCF581D0CD
:200D010005D0060548E4B548020549C3E5489404E549940040C20DBD00010EC3ED940CEE16
:200D2100940040AF9000961200A1E4C0E0740AC0E0C0E07407C0E075820F122707E5812429
:200D4100FCF5819000641200A11202BA7F06020CA312259C1207D49033BC75F08012278E8A
:200D61007D007E00E4F548F5498D02EA75F00AA4FAE54875F00AA4F582C006C005E4C0E0CC
:200D8100740AC0E0C0E0C002122707E58124FCF581D005D0060548E4B548020549C3E5487D
:200DA1009404E549940040C10DBD00010EC3ED9403EE940040AE7D007E0074035DF51175FD
:200DC1001200900003C006C005122D2BAB82D005D006EB2421F98702098703098704191995
:200DE1008A828B838CF0C006C00512278ED005D0060DBD00010EC3ED9440EE940040BB90F5
:200E010000501200A17F00020CA312259C1201667F02020CA31206467F03020CA3753500E5
:200E21007582001229787D007E00E4F548F5498D02EA75F00AA4FAE54875F00AA4F582C0B0
:200E410006C005E4C0E0740AC0E0C0E0C002122707E58124FCF581D005D0060548E4B548AD
:200E6100020549C3E5489404E549940040C10DBD00010EC3ED9403EE940040AE7D007E004B
:200E81007B637C001BBBFF011CEB4C70F70DBD00010EC3ED9450EE940040E57F04020CA31F
:200EA1007535007582001229787535407582001229787535007D007E00E4F548F5498D02B6
:200EC100EA75F00AA4FAE54875F00AA4F582C006C005E4C0E0740AC0E0C0E0C00212270794
:200EE100E58124FCF581D005D0060548E4B548020549C3E5489404E549940040C10DBD00B7
:200F0100010EC3ED9403EE940040AEE4F54AF54BF54CF54D7401554AFA7E008A05ED030316
:200F210054C0F535758200C006C002122978E54A254AFCE54B33FD7401C0E0C004C005C0E8
:200F41004CC04DC04AC04B9052C775F080121A57E58124F9F581D002D0068A8212260274B6
:200F610003254CF54CE4354DF54D054AE4B54A02054BC3E54A9480E54B94004097E4F54ACB
:200F8100F54BF54CF54D7401554AFA7E008A05ED030354C0F535758200C006C0021229780F
:200FA100E54A254AFCE54B33FD7401C0E0C004C005C04CC04DC04AC04B90528375F080120E
:200FC1001A57E58124F9F581D002D0068A821226027403254CF54CE4354DF54D054AE4B5FF
:200FE1004A02054BC3E54A9480E54B94004097E4F54AF54BF54CF54D7401554AFA7E008AB7
:2010010005ED030354C0F535758200C006C002122978E54A254AFCE54B33FD7401C0E0C098
:2010210004C005C04CC04DC04AC04B9051FF75F080121A57E58124F9F581D002D0068A82C3
:201041001226027403254CF54CE4354DF54D054AE4B54A02054BC3E54A9480E54B940040F6
:2010610097E4F54AF54BF54CF54D7401554AFA7E008A05ED030354C0F535758200C006C029
:2010810002122978E54A254AFCE54B33FD7401C0E0C004C005C04CC04DC04AC04B9048A359
:2010A10075F080121A57E58124F9F581D002D0068A821226027403254CF54CE4354DF54D0F
:2010C100054AE4B54A02054BC3E54A9480E54B94004097E4F54AF54BF54CF54D7401554AF0
:2010E100FA7E008A05ED030354C0F535758200C006C002122978E54A254AFCE54B33FD7417
:2011010001C0E0C004C005C04CC04DC04AC04B90514B75F080121A57E58124F9F581D00217
:20112100D0068A821226027403254CF54CE4354DF54D054AE4B54A02054BC3E54A9480E552
:201141004B940040977535007582001226027F05020CA37535007582001229787535407515
:2011610082001229787535007D007E00E4F548F5498D02EA75F00AA4FAE54875F00AA4F57A
:2011810082C006C005E4C0E0740AC0E0C0E0C002122707E58124FCF581D005D0060548E425
:2011A100B548020549C3E5489404E549940040C10DBD00010EC3ED9403EE940040AE7D0089
:2011C1007E00C006C0057401C0E07432C0E0E4C0E07428C0E0E4C0E08D828E8312231CE510
:2011E1008124FBF581D005D0060DBD00010EC3ED9428EE940040CB7D007E00C006C005E4F1
:20120100C0E07432C0E0E4C0E07428C0E0E4C0E08D828E8312231CE58124FBF581D005D092
:20122100060DBD00010EC3ED9428EE940040CCE4F548F5497B147C007A007E00C006C004E8
:20124100C003C0027401C0E07432C0E0E4C0E07428C0E0E4C0E08B828C8312231CE5812472
:20126100FBF581E4C0E07432C0E0E4C0E07428C0E0E4C0E085488285498312231CE5812473
:20128100FBF581D002D003D004D0060548E4B548020549C3E5489441E54994004005E4F56A
:2012A10048F5490BBB00010CC3EB9441EC940040047B007C000ABA00010EC3EA9490EE9470
:2012C10001500302123DE4F548F5497B017C007D007E00758200C006C005C004C0031229D2
:2012E10078D003D004D005D00674015DF54CE4F54DF54AF54BC006C005C004C0037401C024
:20130100E07432C0E0E4C0E07428C0E0E4C0E08B828C8312231CE58124FBF581D003D00453
:20132100D005D00674022548F548E43549F549C3E5489441E54994004005E4F548F54974A2
:20134100022BFBE43CFCC3EB9441EC94004004AB4CAC4D054AE4B54A02054BC3E54A9428DF
:20136100E54B9400408F74015DFB7C000DBD00010EC3ED940AEE940050030212D47F01022A
:021381000CA3BB
:202FD40000000000000000000080F8FFFFE3FFFFCFFFFF1F3C00C0F30000EF01001E1C0081
:202FF40000730000EC0000180C0000320000680000100C00003200006800001004000012C4
:2030140000002800001084FF0F12FE3F28FC7F1084FF0712FE1F28FC3F1084FF0113FE0708
:203034002CFC0F18A4FFC093FE032FFD071EA43FE093FE802FFD011FA41FF8937EE02FFDED
:20305400C01FA407FC931EF02F3DE01FA403FE930EF82F1DF01FA480FF9302FE2F05FC1F2C
:20307400A4C0FF9302FF2F05FE1FA4C0FF9302FF2F05FE1FA4000092020028050010A40093
:203094000092020028050010A40100920600280D0010A40300920E00281D0010A4FFFF93F8
:2030B400FEFF2FFDFF1FA407F8931EE02F3DC01FA401F09306C02F0D801FA401E0930680CF
:2030D4002F0D001FA400C09302002F05001EA4E0C19382072F050F1EA4F0C393C20F2F8505
:2030F4001F1EA4F0C393C20F2F851F1EA4F0C393C20F2F851F1EA4F0C393C20F2F851F1E7B
:20311400A4F0C393C20F2F851F1EA4F0C393C20F2F851F1EA4F0C393C20F2F851F1EA4F003
:20313400C393C20F2F851F1EA4F0C393C20F2F851F1EA4E0C19382072F050F1EA400C093FE
:2031540002002F05001EA401E09306802F0D001FA401F09306C02F0D801FA407F8931EE011
:203174002F3DC01FA4FFFF93FEFF2FFDFF1FA407C0931E002F3D001EA401C09306002F0D94
:20319400001EA401C09306002F0D001EA400C09302002F05001EA4E0FF9382FF2F05FF1F71
:2031B400A4F0FF93C2FF2F85FF1FA4F0FF93C2FF2F85FF1FA4F0FF93C2FF2F85FF1FA4F03C
:2031D400FF93C2FF2F85FF1FA4F0FF93C2FF2F85FF1FA4F0FF93C2FF2F85FF1FA4F0FF931E
:2031F400C2FF2F85FF1FA4F0FF93C2FF2F85FF1FA4F0FF93C2FF2F85FF1FA4F0FF93C2FFCF
:203214002F85FF1FA4F8FF93E2FF2FC5FF1FA4FFFF93FEFF2FFDFF1FA400C09302002F05FE
:20323400001EA400C09302002F05001EA400C09302002F05001EA400C09302002F05001E7B
:20325400A4FFFF93FEFF2FFDFF1FA400F89302E02F05C01FA400F09302C02F05801FA4005A
:20327400E09302802F05001FA400C09302002F05001EA41FC0937E002FFD001EA41FC293B1
:203294007E082FFD101EA41FC2937E082FFD101EA41FC2937E082FFD101EA41FC2937E08AC
:2032B4002FFD101EA41FC2937E082FFD101EA41FC2937E082FFD101EA41FC2937E082FFDE6
:2032D400101EA41FC2937E082FFD101EA41FC2937E082FFD101EA41FC2937E082FFD101EC4
:2032F400A41FC3937E0C2FFD181EA4FFFF93FEFF2FFDFF1FA407F8931EE02F3DC01FA40115
:20331400F09306C02F0D801FA401E09306802F0D001FA400C09302002F05001EA410C29328
:2033340042082F85101EA410C29342082F85101EA410C29342082F85101EA410C293420890
:203354002F85101EA410C29342082F85101EA410C29342082F85101EA410C29342082F8506
:20337400101EA410C29342082F85101EA410C29342082F85101EA410C29342082F85101E6C
:20339400A410C29342082F85101E8CF8E733E29F6FC43F1FF8FFFFE3FFFFCFFFFF1F010070
:2033B4000000000000000000FFFFFFFFFFFFFFFFFFFFFFFFFFFFFFFFFFFFFFFFFFFFFFFF11
:2033D400FFFFFFFFFFFFFFFFFF3F0860F0FFFFFFFFFFFF3F0860F0FFFFFFFFFFFF3F086019
:2033F400F0FFFFFFFFFFFF3F0860F0FFFFFFFFFFFF3F0860F0FFFFFFFFFFFF3F0860F0FF17
:20341400FFFFFFFFFF3F0860F0FFFFFFFFFFFF3F0860F0FFFFFFFFFFFF3F0860F0FFFFFFE7
:20343400FFFFFF3F0860F0FFFFFFFFFFFF3F0860F0FFFFFFFFFFFF3F0860F0FFFFFFFFFFC7
:20345400FF3F0860F0FFFFFFFFFFFF1F0860F0FFFFFFFFFFFF1F0860F0FFFFFFFFFFFF1FC7
:203474000860F0FFFFFFFFFFFF1F0860F0FFFFFFFFFFFF1F0C60F0FFFFFFFFFFFF1F0C6075
:20349400E0FFFFFFFFFFFF1F0C60E0FFFFFFFFFFFF1F0C60E0FFFFFFFFFFFF1F0C60E0FF0A
:2034B400FFFFFFFFFF0F0C60E0FFFFFFFFFFFF0F0C60E0FFFFFFFFFFFF0F0C60E0FFFFFFFB
:2034D400FFFFFF0F0C60C0FFFFFFFFFFFF0F0C60C0FFFFFFFFFFFF070CE0C0FFFFFFFFFFC3
:2034F400FF070CE0C0FFFFFFFFFFFF070CE080FFFFFFFFFFFF030CE080FFFFFFFFFFFF0333
:203514000EE080FFFFFFFFFFFF030EE000FFFFFFFFFFFF010EE000FFFFFFFFFFFF010EE06C
:2035340001FEFFFFFFFFFF000EE001FEFFFFFFFFFF000FE001FCFFFFFFFF7F000FE001FC42
:20355400FFFFFFFF3F000FE003F8FFFFFFFF3F800FE003F0FFFFFFFF1F800FE007E0FFFF26
:20357400FFFF0FC00FE007C0FFFFFFFF07C00FE00F80FFFFFFFF03E00FE00F00FFFFFFFF9A
:2035940001E00FE01F00FEFFFFFF00F00FE01F00FCFFFF3F00F80FE03F00F8FFFF1F00F8C3
:2035B4000FE07F00E0FFFF0700FC0FE0FF0080FFFF0100FE0FE0FF0100FE1F0000FF0FE043
:2035D400FF0300F0070080FF0FE0FF0700C00700E0FF0FE0FF0F00C00700F0FF0FE0FF1F04
:2035F40000C00700F8FF0FE0FF7F00C00700FEFF0FE0FFFF00C00780FFFF0FE0FFFF03C0E6
:2036140007E0FFFF0FE0FFFF0FC007F8FFFF0FE0FFFF3FC007FFFFFF0FE0FFFFFFC1FFFF5D
:20363400FFFFFFFFFFFFFFFFFFFFFFFFFFFFFFFFFFFFFFFFFFFFFFFFFFFFFFFFFFFFFFFF96
:20365400FFFFFFFFFFFFFFFFFFFFFFFFFFFFFFFFFFFFFFFFFFFFFFFFFFFFFFC30F00F8E0C7
:20367400FF00FCC3FF810700F8E07F00F0C3FF01070078C07F00E0C3FF010F0078C07F00C0
:20369400C0C3FF00FFC17FC07FF8C1C3FF00FFE13F807FF8C3C3FF00FEE13F807FF8C3C365
:2036B4007F00FEE13F807FF8C3C37F10FEE11F047FF8C3C37F18FCE11F0E7FF8C3C37F38F9
:2036D400FCE11F0E7FF8C1C33F38FCE11F0E7FF8C0C33F3CFCE10F0E7E78C0C33F3CF8E114
:2036F4000F1F7E18E0C31F7CF8E10F1F7E08F0C31F7CF8E1071F7E08FCC31F00F0E107009E
:203714007C08FCC31F00F0E107007C18FCC30F00F0E107007C18FCC30F00F0E1030078383B
:20373400F8C30FFFE0E1833F7878F0C30FFFE1E1C37F7878F0C307FFE1E1C37F78F8E0C3B4
:2037540087FFC1E1C17F70F8C1C387FFC1E1E1FF70F8C1C383FFC3E1E1FF70F883C3C3FF97
:20377400C3E1E1FF70F887C3FFFFFFFFFFFFFFFFFFFFFFFFFFFFFFFFFFFFFFFFFFFFFFFF17
:20379400FFFFFFFFFFFFFFFFFFFFFFFFFFFFFFFFFFFFFFFFFFFFFFFFFFFFFFFFFFFFFFFF35
:2037B400FFFFFFFFFFFFFFFFFFFFFF3FFCF0FFFFFFFFFFFFFFDF7BEFFFFFFFFFFFFFFFBFDB
:2037D400B5F6FFFFFFFFFFFFFF7FB6F9FFFFFFFFFFFFFFFFB6FDFFF8FF81FF1FFFFF86FD42
:2037F4003FF77F7EFEEFFCFFB4FCDFEFBFFFFDF7FB7F79FAEFC0DFC3FB03F7BFFFF777808B
:203814009F00F901EEBFFFF7979F1F00F8F9E97FFFFBC3D51F7EF8ABC33F00F0CDD5AFDBBA
:20383400F5ABB3DF00EC8DBF6FDBF6FDB1DF00ECDDBE6FBDF67DBBDF01EE73800F3CF0015F
:20385400CE3F03F3C7C09F00F903E37FFFFB87EF1FC3F8F7E17F02F91BE05F3CFA07D8BF03
:20387400FCF4BD8B2F00F4D1BDDF78ECDD57CF7EF3EABBDF79EEDD47EFBDF7E2BBDF79EEFF
:20389400BD4BEF00F7D2BD1F00E07B8CCF42F331DE3F00F003C00FC3F003C03F00F003E0F5
:2038B4001F00F807C07F00F803E43F00FC27C07F00F807F23F18FC4FE0FF30FC07F03F0043
:2038D400FC0FE0FF00FCFBEEBFE7FD77DF7FCFFBFBDDDFE7FBBBDFBFCFF703C01F00F8032E
:2038F400C03F00F0FFFFFFFFFFFFFFFFFFFFFFFFFFFFFFFFFFFFFFFFFFFFFFFFFFFFFFFFE1
:20391400FFFFF8FFF1FFFFFFE3FFC7FFFBFFF6FF8FFFDBFFB7FFFB7FF7FFB7FFBBFF77FFA5
:20393400FDBFFBFFBBFF77FFEFFEFE1FFDFFDDFF2FFE5FFCFC4FF8FFE8FF87FC0FF9FB175D
:20395400F77FC2FF3BFA77E4F703EE9FB8FF1DF03BE0EE01DC1F70FF0EE01DC0E9F3D30F44
:20397400E0FEF2F3E5E7C353879F9F7EB8FA70E5B353679F3ABCB97A73E5B1FB639F3ABB14
:20399400F177E3EFBBFB76DF1FBBDB77B7EFCE039CDFB77B0EF01CE0E707CF1FE0FC3CF898
:2039B40079F0E1EF833F78FEF0FDE1FBD80F507F1F7E03FC04F8BDDFEE7E80BC7771EFE26E
:2039D400BB6FDF1EDDBBFB6AF785BB09DF86BEBBFB68F791BD95CE26BEBB7769EF92DE8D1B
:2039F4004127DD7B8FF11CE3C00D801FE37C00F801F0C00D803F007E00FC01F8C00D807FF5
:203A1400007E80FC03FCE0D901FF00FF40FE07FCE0E361FF80FF00FE1BFEDFFF79FF617FB1
:203A3400DFFDFBFEDFFFBDFF7D7FBFFBF7FDC0FFC1FFBE7F00F80FFCFFFFFFFFC0FFFFFFE1
:203A5400FFFFFFFFFFFFFFFFFFFFFFFFFFFFFFFFFFFFFFFFFFFFFF1FFEFFFFFF1FFE3FFCF7
:203A7400FCEFF9FFF0FFE7FDCFFBFBF7F77FCFFFFBFBF7E7F703EE9FBFFF1DF03BE0EE014C
:203A9400DC1F70FF0EE01DC0E9F3D30FE0FEF2F3E5E7C343879F9F7EB8FA70E1B343671FC8
:203AB4003ABCB97A73E1B1FB631F3ABBF177E3EFBBFB76DF1FBBDB77B7EFCE039CDFB77BBD
:203AD4000EF01CE0E707CF1FE0FC3CF879F0E1EF833F78FEF0FDE1FBD81F507F1F7E03FC50
:203AF40004F8BDDFEE7E80BC7771EFE2BB6FDF1EDDBBFB6AF785BB09DF86BEBBFB68F7918C
:203B1400BD95CE26BEBB7769EF92DE8D4127DD7B8FF11CE3C00D801FE37C00F801F0C00D46
:203B3400803F007E00FC01F8C00D807F007E80FC03FCE0D901FF00FF40FE07FCE0E361FF5E
:203B540080FF00FE1BFEDFFF79FF617FDFFDFBFEDFFFBDFF7D7FBFFBF7FDC0FFC1FFBE7FB0
:203B740000F80FFCFFFFFFFFC0FFFFFFFFFFFFFFFFFFFFFFFFFFFFFFBFFFBFFFBF0300FC47
:203B94007FFFBFFFBFFF3F0000FC7FFFBFFFBFFF0F2A00F87FFFBFFFBF7F40D144E07FFF84
:203BB400BFFFBF1F242503C27FFFBFFFBF8F94948C807FFFBFFFBF83524A22107FFFBFFF01
:203BD400BF21495149007EFFBFFFBF0000004A027CFFBFFF3FA8FF2F80267CFFBFFF0FFA92
:203BF400FFFF050879FFBFFF4FFDFFFF371478FFBFFFA7FEFFFF2F2078FFBFFF51FDFFFF33
:203C1400FF2078FFBFFFE4FAFFFF7F4970FFBF7F5A0100F0FF4270FFBF7E24FC9FC2FF042F
:203C340074FF3F7C89FF3F095F8370FE3F79E2FF7F32FC0A30FCBF73F2FFBFA4700591FC1E
:203C5400BFE7F8FF9F4ACD0A50FDDFCFFCFF5F498E9AF0FCDF9FFEFF2F053805F0F8DF5E30
:203C7400FFC3AF247012F8F9DF9C7F1C97A0C40CDFF9DFDC7F7E4A49CC028FF9DFD93FFF9C
:203C94002412E9A1C7F9DFE89FFFA824F38D91FDDFE29E7F45A8F7C3A8FCDF62DFBF0A91AE
:203CB400EFCBD1FCDF64DF0FE00A9E67D4FCDF25FF8B7FE43806DAFCBF09FF233FF07B27B9
:203CD40079FEBF53FFFAFEFF332765FEBF259FF8FFFF378736FF3F4B0FFCFEEFB74F3EFF63
:203CF4003F8B867CFECFB78F1FFFBF36867EFECFB70F0FFFBF4D147EFFDFB7CF57FFBFBB47
:203D1400887EFECFB7CF6BFFBFF7107CFECFB9CF73FFBFCF2A7BFECFBFDF7AFFBFBF92FF9D
:203D3400FEEFBF8F7CFFBF3F0EFFFFFFBF4F7EFFBFBF1EFFFFFFBF8F7FFFBF3F0EAFFF7F87
:203D54009DEF7FFFBF7F0EAFFF7F9DEF7FFFBF3F1CFCFFFFDFE77FFFBFBF0DFE00C08FE7AB
:203D74007FFFBFBF6BFCFDEFC7F77FFFBFBFC3F811E187F37FFFBFBFE3E0A3F283F17FFFB9
:203D9400BFBFF3C00FFC81F97FFFBF3F6740FF7F81F87FFFBF7F7700FC0F08FC7FFFBF7F41
:203DB4003608000080FC7FFFBF7F3680220112FC7FFFBF3F3C00584904FC7FFFBFBFCB244E
:203DD400F40518FD7FFFBFBFD7844040A2F87FFFBFBFF309180140FA7FFFBF1FF80941481F
:203DF40084F47FFFBFDFB9819081A0F27FFFBFDF8305102000E17FFFBFBFC340128309EDFF
:203E14007FFFBF7F1880400001E27FFFBF7F7C82B05060C07FFFBF7F0010022864DF7FFF86
:203E3400BFFF12000804B09F7FFFBFFF0424E001B2BB7FFFBFFF81E6E7F9B1B17FFFBFFF70
:203E5400FF86E7F9B0BD7FFFBFFFFF020000B0DD7FFFBFFFFF02020464D97FFFBFFFFF40B7
:203E7400022860E07FFFBFFFFF9090C040FD7FFFBFFFFF80000152FD7FFFBFFFFF082404F6
:203E940040FD7FFFBFFFFF40004842FD7FFFBFFFFF02920064FD7FFFBFFFFF0E000068FDF1
:203EB4007FFFBFFFFFDE57F733FD03FF3FC0FF9E87C0E101F8F8DF3F001E0FD0E8FFFFFFA0
:203ED400EFFF1F0089A2E0FFFFFFFFFF9F372008CCFFFFFFFFFF9FE75FF4D7FFFFFFFFFF4B
:203EF4003F202F481200C0F8FFFFFF561291C4FFFFFFFFFFFF82845081FFFFFFFFFF7F0009
:203F1400000210FFFFFF0F000014A006A4FFFFFFFFFF3FAA05804AFCFFFFFFFF1F910A406C
:203F340099F2FFFFFFFF4F4A049022F3FFFFFFFF8FA50AC055F3FFFFFFFFAFFF8580FFF7BD
:203F5400FFFFFFFFC77F4105FEE1FFFFFFFF039EE08FFCC2FFFFFFFF0129F05F4288FFFFDF
:203F740055555555555555555555AAAAAAAAAAAAAAAAAAAA55555555555555555555AAAA91
:203F9400AAAAAAAAAAAAAAAA55555555555555555555AAAAAAAAAAAAAAAAAAAA5555555573
:203FB400555555555555AAAAAAAAAAAAAAAAAAAA55555555555555555555AAAAAAAAAAAAFD
:203FD400AAAAAAAA55555555555555555555AAAAAAAAAAAAAAAAAAAA555555555555555587
:203FF4005555AAAAAAAAAAAAAAAAAAAA55555555555555555555AAAAAAAAAAAAAAAAAAAA69
:2040140055555555555555555555AAAAAAAAAAAAAAAAAAAA55555555555555555555AAAAF0
:20403400AAAAAAAAAAAAAAAA55555555555555555555AAAAAAAAAAAAAAAAAAAA55555555D2
:20405400555555555555AAAAAAAAAAAAAAAAAAAA55555555555555555555AAAAAAAAAAAA5C
:20407400AAAAAAAA55555555555555555555AAAAAAAAAAAAAAAAAAAA5555555555555555E6
:204094005555AAAAAAAAAAAAAAAAAAAA55555555555555555555AAAAAAAAAAAAAAAAAAAAC8
:2040B40055555555555555555555AAAAAAAAAAAAAAAAAAAA55555555555555555555AAAA50
:2040D400AAAAAAAAAAAAAAAA55555555000050555555AAAAAAAAFFFFAFAAAAAA555555D5B2
:2040F400FFFF5F555555AAAAAACA01009CAAAAAA555555D5FEFF5B555555AAAAAACAFEFFFD
:204114009BAAAAAA555555D5FEFF5B555555AAAAAACADEDD9BAAAAAA555555D5DEDD5B556C
:204134005555AAAAAACAFEFD9BAAAAAA555555D5FEFD5B555555AAAAAACAFEFC9BAAAAAAE1
:20415400555555D5FEFF5B555555AAAAAACABEF79BAAAAAA555555D57EF85B555555AAAA12
:20417400AACAFEFF9BAAAAAA555555D5FEFF5B555555AAAAAACA01009CAAAAAA555555D5BF
:20419400FFFF5F555555AAAAAACAFFFF9FAAAAAA555555D5FFFF5F555555AAAAAACAFFFF56
:2041B4009FAAAAAA555555D5FC0F5C555555AAAAAACAFFFF9FAAAAAA555555D5FFFF5F552B
:2041D4005555AAAAAACAFFFF9FAAAAAA555555D5FFFF5F555555AAAAAA2A0000A0AAAAAAC8
:2041F40055555595FFFF4F555555AAAAAAAAFFFFAFAAAAAA55555595FFFF4F555555AAAA44
:20421400AA2A0000A0AAAAAA55555555555555555555AAAAAAAAAAAAAAAAAAAA55555555CE
:20423400555555555555AAAAAAAAAAAAAAAAAAAA55555555555555555555AAAAAAAAAAAA7A
:20425400AAAAAAAA55555555555555555555AAAAAAAAAAAAAAAAAAAA555555555555555504
:204274005555AAAAAAAAAAAAAAAAAAAA55555555555555555555AAAAAAAAAAAAAAAAAAAAE6
:2042940055555555555555555555AAAAAAAAAAAAAAAAAAAA55555555555555555555AAAA6E
:2042B400AAAAAAAAAAAAAAAA55555555555555555555AAAAAAAAAAAAAAAAAAAA5555555550
:2042D400555555555555AAAAAAAAAAAAAAAAAAAA55555555555555555555AAAAAAAAAAAADA
:2042F400AAAAAAAA55555555555555555555AAAAAAAAAAAAAAAAAAAA555555555555555564
:204314005555AAAAAAAAAAAAAAAAAAAA55555555555555555555AAAAAAAAAAAAAAAAAAAA45
:2043340055555555555555555555AAAAAAAAAAAAAAAAAAAA55555555555555555555AAAACD
:20435400AAAAAAAAAAAAAAAA000000000000000000000000000000000000000000000000F9
:204374000000000000F8FFFFFF000000000000000000000000000000000000000000FFFF36
:20439400FFFF0700000000000000000000000000000000000000C0FFFFFFFF0F0000000039
:2043B400000000000000000000000000000000E0FFFFFFFF1F0000000000000000000000EE
:2043D4000000000000000000F0FFFFFFFF1F000000000000000000000000000000000000BE
:2043F40000F0FFFFFFFF1F00000000000000000000000000000000000000F8FFFFFFFF1F8B
:20441400000000000000000000000000000000000000000000000000000000000000000088
:2044340000000000000000000000007C0000003EF021FC00000000000000000000000000A1
:2044540000000000FF098081FFFC67FF0300000000000000000000000000000080810DC00D
:20447400C3C006360303000000000000000000000000000000C0800D60C34006B2010300F7
:204494000000000000000000000000000000C0000C30C23FFEB1013073468CC81199030071
:2044B40000000000000000C0000618867FFCB301B87B6FDE6CDFDD030000000000000000AA
:2044D400C08006F86760039B80314B499B689B59020000000000000000C0C006FC6760039B
:2044F400DB8011ED4D9B2C9949020000000000000000C07FFE07EC3FFF99FF10BD47CFEC82
:2045140089C8010000000000000000803FFE07CC1FFE087F00100206400080000000000029
:2045340000000000000000000000000000000000000000000000000000000000000000FF68
:204554007F0000000000000000000000000000000000000000000000FF7FFCE77F0E70FF6B
:2045740019D87F7B70FF0300000000000000000000FF7FFEF77F1E78030D180E7BB083035B
:2045940000000000000000000000FF7F0636601F3C010D1C06FBB00103001E7860FC0300BE
:2045B400000000FF3F0730601B3E810D0C86DDB10100003F7E70FC0100000080FF3F0330EF
:2045D400603BB7FF0C0C869DDBF901C031E33C040000000080FF3F033660B3B301040C8301
:2045F4000DDBF00140B0C1347E0000000080FF3F033670F3B901060C830DDF80010098E1DC
:2046140030FE0000000080FF3FFFF3BFE39800FE07830DDEFF0000DC6018C700000000C021
:20463400FF3FFEF19F619800FC0381048C7F0000C76018C100000000C0FF7F0000000000D4
:204654000000000000000000C0C13018C000000000C0FFFFFFFFFF01000000000000000001
:204674000060C0300C6000000000C0FFFFFFFFFF0100000000000000000030C0188C3000EA
:20469400000000C0FFFFFFFFFF00000000000000000000F0C70F9F1F0000000080FFFFFF4A
:2046B400FFFF00000000000000000000F887871F0F0000000080FFFFFFFF7F0000000000B9
:2046D400000000000000000000000000000000FFFFFFFF3F0000000000000000000000008B
:2046F4000000000000000000FEFFFFFF0F000000000000000000000000000000000000009C
:2047140000F8FFFFFF0300000000000000000000000000000000000000000000000000008D
:2047340000000000000000000000000000000000546865204D696E6974656C2044656D6FAD
:2047540020212020000A0A0A0A3C3C4C65204D696E6974656C2065737420756E20746572A7
:204774006D696E616C0A696E666F726D617469717565207061737369662C0A632765737444
:204794002DE02D6469726520717527696C207327616769740A756E697175656D656E742051
:2047B4006427756E20636C6176696572206574206427756E20E96372616E2C0A73616E7352
:2047D4002063617061636974E9206465207472616974656D656E740A6E6920646973706F81
:2047F40073697469662064652073746F636B6167652E3E3E0A0A20416820626F6E203F20C7
:20481400766F796F6E732063656C612E2E2E00F0E2E301F020E3002CE2E300000000002CD1
:2048340020E3012CE2E300F020E30000000000F0E21F01F0E2E3002CE21F00000000002C7C
:20485400E2E3012CE21F00F0E2E30100000000F0201F01F0E21F002C201F00000000002CE3
:20487400E21F012C201F00F0E21F0100000000F020E301F0201F002C20E301000000002C46
:20489400201F012C20E300F0201F010000000008234880EF104201DE2D3900D221390000C0
:2048B400000000EF104201D2213900CD10390000000000EF104201CD103900D200390000FD
:2048D400000000EF104201D2003900DEF3390000000000EF104201DEF33900EFEF3900000A
:2048F400000000EF104201EFEF390000F3390000000000EF10420100F339000C003900006C
:20491400000000EF1042010C0039001110390000000000EF104201111039000C21390000A0
:20493400000000EF1042010C213900002D390000000000EF104201002D3900EF3239010052
:20495400000000EF323900D2432100DE2D390100000000DE2D3901D2432100BD2D210000E8
:20497400000000DE2D3900BD2D2100D221390100000000D2213901BD2D2100B51021000089
:20499400000000D2213900B5102100CD10390100000000CD103901B5102100BDF32100000C
:2049B400000000CD103900BDF32100D200390100000000D2003901BDF32100D2DE21000042
:2049D400000000D2003900D2DE2100DEF3390100000000DEF33901D2DE2100EFD62100001A
:2049F400000000DEF33900EFD62100EFEF390100000000EFEF3901EFD621000CDE21000092
:204A1400000000EFEF39000CDE210000F339010000000000F339010CDE210021F3210000C6
:204A340000000000F3390021F321000C003901000000000C00390121F321002910210000E6
:204A54000000000C0039002910210011103901000000001110390129102100212D21000024
:204A740000000011103900212D21000C213901000000000C213901212D21000C43210000AC
:204A94000000000C2139000C432100002D390100000000002D39010C432100EF4B21000093
:204AB400000000002D3900EF4B2101EF32390100000000EF4B2100CD4BFF00D2432101001C
:204AD400000000D2432101CD4BFF00B532FF0000000000D2432100B532FF00BD2D21010066
:204AF400000000BD2D2101B532FF00AC10FF0000000000BD2D2100AC10FF00B51021010048
:204B1400000000B5102101AC10FF00B5EFFF0000000000B5102100B5EFFF00BDF3210100E1
:204B3400000000BDF32101B5EFFF00CDD6FF0000000000BDF32100CDD6FF00D2DE21010005
:204B5400000000D2DE2101CDD6FF00EFCDFF0000000000D2DE2100EFCDFF00EFD62101009F
:204B7400000000EFD62101EFCDFF0011D6FF0000000000EFD6210011D6FF000CDE210100C1
:204B94000000000CDE210111D6FF0029EFFF00000000000CDE210029EFFF0021F3210100A0
:204BB40000000021F3210129EFFF003210FF000000000021F321003210FF00291021010082
:204BD400000000291021013210FF002932FF0000000000291021002932FF00212D210100A7
:204BF400000000212D21012932FF00114BFF0000000000212D2100114BFF000C4321010041
:204C14000000000C432101114BFF00EF54FF00000000000C432100EF54FF01EF4B21010063
:204C3400000000EF54FF00D243DD00CD4BFF0100000000CD4BFF01D243DD00BD2DDD000043
:204C5400000000CD4BFF00BD2DDD00B532FF0100000000B532FF01BD2DDD00B510DD00002B
:204C7400000000B532FF00B510DD00AC10FF0100000000AC10FF01B510DD00BDF3DD0000F1
:204C9400000000AC10FF00BDF3DD00B5EFFF0100000000B5EFFF01BDF3DD00D2DEDD000056
:204CB400000000B5EFFF00D2DEDD00CDD6FF0100000000CDD6FF01D2DEDD00EFD6DD00003B
:204CD400000000CDD6FF00EFD6DD00EFCDFF0100000000EFCDFF01EFD6DD000CDEDD00009B
:204CF400000000EFCDFF000CDEDD0011D6FF010000000011D6FF010CDEDD0021F3DD000098
:204D140000000011D6FF0021F3DD0029EFFF010000000029EFFF0121F3DD002910DD000071
:204D340000000029EFFF002910DD003210FF01000000003210FF012910DD00212DDD00006D
:204D54000000003210FF00212DDD002932FF01000000002932FF01212DDD000C43DD0000C6
:204D74000000002932FF000C43DD00114BFF0100000000114BFF010C43DD00EF4BDD00009E
:204D9400000000114BFF00EF4BDD01EF54FF0100000000EF4BDD00DE2DC500D243DD01006F
:204DB400000000D243DD01DE2DC500D221C50000000000D243DD00D221C500BD2DDD0100F2
:204DD400000000BD2DDD01D221C500CD10C50000000000BD2DDD00CD10C500B510DD010091
:204DF400000000B510DD01CD10C500D200C50000000000B510DD00D200C500BDF3DD0100FC
:204E1400000000BDF3DD01D200C500DEF3C50000000000BDF3DD00DEF3C500D2DEDD010012
:204E3400000000D2DEDD01DEF3C500EFEFC50000000000D2DEDD00EFEFC500EFD6DD0100C4
:204E5400000000EFD6DD01EFEFC50000F3C50000000000EFD6DD0000F3C5000CDEDD01001E
:204E74000000000CDEDD0100F3C5000C00C500000000000CDEDD000C00C50021F3DD010043
:204E940000000021F3DD010C00C5001110C5000000000021F3DD001110C5002910DD010067
:204EB4000000002910DD011110C5000C21C500000000002910DD000C21C500212DDD0100BB
:204ED400000000212DDD010C21C500002DC50000000000212DDD00002DC5000C43DD010064
:204EF4000000000C43DD01002DC500EF32C500000000000C43DD00EF32C501EF4BDD01006E
:204F1400000000EF10BC00DE2DC501EF32C50000000000EF10BC00D221C501DE2DC50100C6
:204F3400000000EF10BC00CD10C501D221C50100000000EF10BC00D200C501CD10C5010050
:204F5400000000EF10BC00DEF3C501D200C50100000000EF10BC00EFEFC501DEF3C501005D
:204F7400000000EF10BC0000F3C501EFEFC50100000000EF10BC000C00C50100F3C50100BF
:204F9400000000EF10BC001110C5010C00C50100000000EF10BC000C21C5011110C50100F4
:204FB400000000EF10BC00002DC5010C21C50100000000EF10BC01EF32C501002DC50100A6
:204FD40000000073A748803107FA01212DFA00212D120000000000212DFA00FB3D1200214D
:204FF4002D120100000000212DFA01FB3DFA00FB3D120000000000FB3DFA00D52D1200FB57
:205014003D120100000000FB3DFA01D52DFA00D52D120000000000D52DFA00C5071200D53A
:205034002D120100000000D52DFA01C507FA00C507120000000000C507FA00D5E11200C528
:2050540007120100000000C507FA01D5E1FA00D5E1120000000000D5E1FA00FBD11200D580
:20507400E1120100000000D5E1FA01FBD1FA00FBD1120000000000FBD1FA0021E11200FBFE
:20509400D1120100000000FBD1FA0121E1FA0021E112000000000021E1FA003107120021DA
:2050B400E112010000000021E1FA013107FA013107120000000000FB0712003107120121EE
:2050D4002D120000000000FB071200212D1201FB3D120000000000FB071200FB3D1201D58A
:2050F4002D120000000000FB071200D52D1201C507120000000000FB071200C5071201D58E
:20511400E1120000000000FB071200D5E11201FBD1120000000000FB071200FBD1120121B9
:20513400E1120000000000FB07120021E11201310712000000000017DB4F80F412FA01062D
:205154002EE400E3F6E40000000000F412FA01E3F6E400F411260000000000F412FA01F48E
:20517400112600062EE40000000000062EE400FBE7E400E3F6E40100000000E3F6E401FB77
:20519400E7E4000C02260000000000E3F6E4000C022600F411260100000000F41126010CA7
:2051B4000226001E1FE40000000000F41126001E1FE401062EE401000000001E1FE4000CFF
:2051D40003FA01FBE7E40100000000FBE7E4000C03FA010C022601000000000C0226000CB1
:2051F40003FA011E1FE401000000000B4F518003FC2201DDCAF6003AE0F60000000000037E
:20521400FC22013AE0F600282DF6000000000003FC2201282DF600CC17F6000000000003B7
:20523400FC2201CC17F600DDCAF60000000000DDCAF60003FCF6013AE0F601000000003AE7
:20525400E0F60003FCF601282DF60100000000282DF60003FCF601CC17F60100000000CC3B
:2052740017F60003FCF601DDCAF60100000000080352802521FB01DB21FB0100FD2F010035
:20529400000000DBD8FB0125D8FB0100FD2F010000000025D8FB0100FDC7012521FB010025
:2052B400000000DBD8FB01DB21FB0100FDC701000000000487528001010101010101010108
:2052D4000101010101010000000000000000000000000000000000010101010101010101AB
:2052F400010101010101020202020202020002020202020202020202020202020202020064
:2053140001010101010101020202020202020202020202020002020201010101010101014A
:20533400010101010102020200010101010101020202020202020202020202020002020129
:2053540001010101010001010001010101010202000101010101010202020202020203030F
:205374000303030300020101000101010101010101010101010101020001010101010103F0
:205394000303030303030303030303030002010101010101010101010000010100010102C3
:2053B4000001000001010103030303030303030303030303000201010101010101010100A3
:2053D40002020001010101020000020200010103030303030303000000000202000201018C
:2053F400010101010001010002020200010101020002020200010102020202020202000270
:20541400020000020002010101010101010101000202020200000000020202020001010255
:2054340002020202020200000202000000020101010001010101010002020202020202022E
:2054540002020202000101020202020202020300000202000002010101010101010000020E
:205474000202020202020202020202020200010303030303030303030000020200020100DB
:205494000101010101010002020203000202020202030002020001030303030303030303BC
:2054B4000300000000020101010101010101000202020000020202000200000202000103B5
:2054D400030303030303020202020200000201010101010001010002010102020202020283
:2054F400020202010100010202020202020202020202020200020201000101010101000269
:20551400010102000202000202000201010001020202020202020202020202020002020246
:20553400010101010101010002020200000000000000020200010102020202020202030330
:20555400030303000000020202020202020202020002020202020202020202000101010300
:205574000303030303030303030300020202000000000000000000000000000000000000F3
:205594000000000101010103030303030303030303030002020000010002020001010101C5
:2055B4000100020200010002020001010101010303030303030301010101000000000101AD
:2055D40000000001010101010101000000010100000101010101010101010101010101019F
:2055F400010101010101010101010101010101010101010101010101010101010101010177
:20561400010101010101010101010101010101010101010101010101010101010101010156
:20563400010101010101010101010101010101010101010101010000000000000000000040
:20565400000000000000000101010101010101010101010101010202020202020200020215
:205674000202020202020202020202020202020001010101010101020202020202020202DF
:205694000202020200020202010101010101010101010101010202020001010101010102CD
:2056B4000202020202020202020202020002020101010101010001010001010101010202A9
:2056D400000101010101010202020202020203030303030300020101000101010101010185
:2056F40001010101010101020001010101010103030303030303030303030303000201015C
:20571400010101010101010101000001000101020001010000010103030303030303030348
:2057340003030303000201010101010101010101000202000101010200010002020001032B
:20575400030303030303020202020202000201010101010100010101000202020001010202
:205774000000020202000102020202020202020000020202000201010101010101010101EC
:205794000002020202000000000202020200010202020202020200020200020200020101CA
:2057B4000100010101010101000202020202020202020202020001020202020202020002A5
:2057D40002000000000201010101010101000100020202020202020202020202020200038A
:2057F40003030303030303000202020200020100010101010101010002020203000202025F
:2058140002020300020200030303030303030303000002020002010101010101010101003F
:20583400020202000002020200020000020200030303030303030202020200000002010121
:20585400010101000101010002010102020202020202020201010002020202020202020204
:205874000202020200020201000101010101010002010102000202000202000201010002ED
:205894000202020202020202020202020002020201010101010101010002020200000000C8
:2058B40000000002020001020202020202020303030303030000020202020202020202029B
:2058D400020002020202020202020202000101030303030303030303030303000202000074
:2058F400000000000000000000000000000000000000000001010103030303030303030376
:2059140003030300020200010002020001010101010100020200010002020001010101034B
:20593400030303030303010101010100000001010100000001010101010101000000010130
:20595400000000010101010101010101010101010101010101010101010101010101010116
:205974000101010101010101010101010101010101010101010101010101010101010101F3
:205994000101010101010101010101010101010101010101010101010101010101010101D3
:2059B4000101010101010000000000000000000000000000000000010101010101010101C4
:2059D40001010202020202020201010101000202020202020202020202020202020202007D
:2059F400010101010101010202020202020202020202020200020202010101010101010164
:205A1400010101010102020200010101010101020202020202020202020202020002020142
:205A3400010101010100010100010101010102020001010101010102020203030303030324
:205A540003020202000201010001010101010101010101010101010200010101010101030C
:205A74000303030303030303030303030002010101010101010101010100000100010102DC
:205A94000001010000010103030303030303030303030303000201010101010101010101BB
:205AB40000020200010101020001000202000103030302020202020202030303000201019F
:205AD400010101010001010100020202000101020000020202000102020202020202020288
:205AF40002020202000201010101010101010101000202020200000000020202020001026B
:205B1400020202020202020202020202000201010100010101010101000202020202020240
:205B340002020202020001020202030303030303030202000002010101010101010001001D
:205B54000202020202020202020202020202000303030303030303000000000000020100FA
:205B74000101010101010100020202030002020202020300020200030303030303000002DC
:205B94000202020200020101010101010101010002020200000202020002000002020003C9
:205BB4000303020202000202020200000002010101010100010101000201010202020202A5
:205BD40002020202010100020202020202020000000000020002020100010101010101008C
:205BF40002010102000202000202000201010002020202020202020202020202000202025F
:205C1400010101010101010100020202000000000000000202000102020203030303030345
:205C3400030202020000020202020202020202020200020202020202020202020001010318
:205C540003030303030303030303030300020000000000000000000000000000000000000A
:205C74000000000001010103030303030303030303030303000202000100020200010101DA
:205C94000101010002020001000202000101010303030101010101010103030300000001C7
:205CB4000101000000010101010101010000000101000000010101010101010101010101B9
:205CD400010101010101010101010101010101010101010101010101010101010101010190
:205CF400010101010101010101010101010101010101010101010101010101010101010170
:205D140001010101010101010101010101010101010101010101010101010101010101014F
:205D3400010101010101010101010101010101010101010101010101010101010101000031
:205D5400000000000000000000000000000000010101010101010101010102020202020218
:205D74000201010101000202020202020202020202020202020202000101010101010102DE
:205D94000202020202020202020202020002020201010101010101010101010101020202BE
:205DB4000001010101010102020202020202020202020202000202010101010101000101A3
:205DD40000010101010102020001010101010102020203030303030303020202000201017B
:205DF40000010101010101010101010101010102000101010101010303030303030303035E
:205E1400030303030002010101010101010101010100000100010102000101000001010349
:205E3400030303030303030303030303000201010101010101010101000202000101010215
:205E54000001000202000103030302020202020202030303000201010101010100010101FD
:205E74000002020200010102000002020200010202020202020202020202020200020101DF
:205E94000101010101010101000202020200000000020202020001020202020202020202C3
:205EB4000202020200020101010001010101010100020202020202020202020202000102A0
:205ED400020203030303030303020000000201010101010101000100020202020202020279
:205EF400020202020202000303030303030303030000020200020100010101010101010059
:205F140002020203000202020202030002020003030303030303030002020202000201012F
:205F3400010101010101010002020200000202020002000002020003030302020202000221
:205F5400020000000002010101010100010101000201010202020202020202020101000207
:205F74000202020202020002020002020002020100010101010101000201010200020200E4
:205F94000202000201010002020202020202020000020202000202020101010101010101C1
:205FB40000020202000000000000000202000102020203030303030303020202000002029D
:205FD40002020202020202020200020202020202020202020001010303030303030303036A
:205FF40003030300020200000000000000000000000000000000000000000000010101037A
:20601400030303030303030303030300020200010002020001010101010100020200010037
:20603400020200010101010303030101010101010103030000000101010000000101010127
:20605400010101000000010100000001010101010101010101010101010101010101010112
:206074000101010101010101010101010101010101010101010101010101010101010101EC
:206094000101010101010101010101010101010101010101010101010101010101010101CC
:2060B4000101010101010101010101010101000000000000000000000000000000000001BD
:2060D40001010101010101020202020202020101010101010100020202020202020202027C
:2060F400020202020202020001010101010101020202020202020202020202020002020257
:20611400010101010101010101010101010202020001010101010102020202020202020240
:20613400020202020002020101010101010001010001010101010202000101010101010325
:206154000303030303030202020202020002010100010101010101010101010101010102F9
:206174000001010101010103030303030303030303030303000201010101010101010101D2
:206194000000010100010102000100000101010303030303030303030303030300020101B6
:2061B4000101010101010100020200010101010200000202000101020202020202020303A0
:2061D400030303030002010101010101000101000202020001010102000202020001010280
:2061F400020202020202000000000202000201010101010101010100020202020000000068
:20621400020202020001010202020202020002020200000000020101010001010101010044
:20623400020202020202020202020202000101030303030303000002020202000002010112
:206254000101010101000002020202020202020202020202020001030303030303030300F0
:206274000000000200020100010101010101000202020300020202020203000202000103E1
:206294000303030303030303030300000002010101010101010100020202000002020200B6
:2062B400020000020200010202020202020203030303030300020101010101000101000298
:2062D400010102020202020202020201010001020202020202020202020202020002020174
:2062F400000101010101000201010200020200020200020101000102020202020202020260
:20631400020202000002020201010101010101000202020000000000000002020001010347
:2063340003030303030302020202000000000202020202020202020200020202020202020D
:206354000202020001010103030303030303030303000202020000000000000000000000FC
:206374000000000000000000000000010101010303030303030303030300020200010002E0
:206394000200010101010101010002020001000202020001010101010101010101010303C4
:2063B4000300000001010100000001010101010101010000000101000000000101010101B4
:2063D400010101010101010101010101010101010101010101010101010101010101010189
:2063F400010101010101010101010101010101010101010101010101010101010101010169
:2064140001010101010101010101010101010101010101010101010101010101010100004A
:20643400000000000000000000000000000000010101010101010102020202020202010130
:206454000101010101000202020202020202020202020202020202000101010101010102F8
:206474000202020202020202020202020002020201010101010101010101010101020202D7
:206494000001010101010102020202020202020202020202000202010101010101000101BC
:2064B400000101010101020200010101010101030303030303030202020202020002010194
:2064D40000010101010101010000010101010102000100000101010303030303030303037B
:2064F40003030303000201010101010101010100020200010001010200000202000101035F
:2065140003030303030303030303030300020101010101010101010002020200010101022D
:2065340000020202000101020202020202020300000303030002010101010101000101001B
:206554000202020200000000020202020001010202020202020200020200020200020101FB
:206574000101010101010100020202020202020202020202000101020202020202020002D6
:206594000200000000020101010001010101000202020202020202020202020202000103BC
:2065B400030303030303020002020202000201010101010101000002020203000202020291
:2065D400020300020200010303030303030303030000020200020100010101010101000273
:2065F400020200000202020002000002020001030303030303030303030300000002010151
:20661400010101010101000201010202020202020202020101000102020202020202030333
:2066340003030303000201010101010001010002010102000202000202000201010001021C
:206654000202020202020202020202020002020100010101010101000202020000000000FD
:206674000000020200010102020202020202020202020200000202020101010101010101DA
:206694000002020202020202020202000101010303030303030302020202000200000202AC
:2066B400020202020202020202000000000000000000000101010103030303030303030395
:2066D400030002020200000000000000000000000000000000000002000101010101010392
:2066F400030303030303030303000202000101000202000101010101000202000100020253
:20671400000101010101010101010101010103030300000001010100000001010101010146
:2067340000000001010100000001010101010101010101010101010101010101010101012B
:20675400010101010101010101010101010101010101010101010125041A0B21141A230F3F
:206774002F132D0D1C24220B002F202A2228001414F63C0A1E28CE141400204D696E697498
:1B679400656C2044656D6F2054657374202120286329487843323030312000B9
:2013830085825185835285F053AA4EAB4FAC508551828552838553F0122ED6F83395E0882A
:2013A300545403A2E0C55413C55413A2E0C55413C55413C554F55574022551F558E43552C4
:2013C300F55985535A855882855983855AF0122ED6F989563395E0F5579068B4E493F8748A
:2013E3000193F9E82556F511E93557F512855482855583C004C003C002122F55A882D002E5
:20140300D003D00488568A828B838CF0E556122CE074012AF55BE43BF55C8C5D7401255122
:20142300FDE43552FEAF538D828E838FF0122ED6FD3395E05403A2E0CD13CD13A2E0CD13EC
:20144300CD13CDFF855882855983855AF0122ED6FE8E583395E0F5599068B4E493F87401CE
:2014630093FEE82558F511EE3559F5128D828F83C004C003C002122F55AE82D002D003D045
:2014830004855B82855C83855DF0EE122CE0742825568A828B838CF0122CE074322E855B22
:2014A30082855C83855DF0022CE085821285831385F014E5119067AF93F51974402511F58A
:2014C300119067AF93F51A74012512F8E43513F9AA14888289838AF0122ED6FBC2D5E519F3
:2014E30030E704B2D5F404F5F0EB30E704B2D5F404A430D50AF42401C5F0F43400C5F0F592
:201503001585F01674022512FDE43513FEAF148D828E838FF0122ED6F51BC2D5E51A30E71F
:2015230004B2D5F404F5F0E51B30E704B2D5F404A430D50AF42401C5F0F43400C5F0D395E0
:2015430015F4B3F515E51695F0F516A2E7C51533C51533C515540130E00244FEF516C2D56F
:20156300E51A30E704B2D5F404F5F0EB30E704B2D5F404A430D50AF42401C5F0F43400C5F7
:20158300F0F51785F018C2D5E51930E704B2D5F404F5F0E51B30E704B2D5F404A430D50A5E
:2015A300F42401C5F0F43400C5F02517F517E51835F0F518A2E7C51733C51733C51754012E
:2015C30030E00244FEF518AC15888289838AF0EC122CE0AB178D828E838FF0EB022CE0856D
:2015E300821285831385F014E5119067AF93F51774402511F5119067AF93F51885128285A1
:2016030013838514F0122ED6FAC2D5E51730E704B2D5F404F5F0EA30E704B2D5F404A4302E
:20162300D50AF42401C5F0F43400C5F0F51585F01674022512F9E43513FBAC1489828B83E2
:201643008CF0122ED6F8C2D5E51830E704B2D5F404F5F0E830E704B2D5F404A430D50AF4C1
:201663002401C5F0F43400C5F0D39515F4B3F515E51695F0F516A2E7C51533C51533C5157A
:20168300540130E00244FEF516C2D5E51830E704B2D5F404F5F0EA30E704B2D5F404A43028
:2016A300D50AF42401C5F0F43400C5F0FAAFF0C2D5E51730E704B2D5F404F5F0E830E704EF
:2016C300B2D5F404A430D50AF42401C5F0F43400C5F02AFAEF35F0FFA2E7CA33CA33CA5452
:2016E3000130E00244FEA8158512828513838514F0E8122CE089828B838CF0EA022CE08500
:20170300821285831385F014E5119067AF93F51774402511F5119067AF93F518851282857F
:2017230013838514F0122ED6FAC2D5E51730E704B2D5F404F5F0EA30E704B2D5F404A4300D
:20174300D50AF42401C5F0F43400C5F0F51585F01674012512F9E43513FBAC1489828B83C2
:201763008CF0122ED6F8C2D5E51830E704B2D5F404F5F0E830E704B2D5F404A430D50AF4A0
:201783002401C5F0F43400C5F0D39515F4B3F515E51695F0F516A2E7C51533C51533C51559
:2017A300540130E00244FEF516C2D5E51830E704B2D5F404F5F0EA30E704B2D5F404A43007
:2017C300D50AF42401C5F0F43400C5F0FAAFF0C2D5E51730E704B2D5F404F5F0E830E704CE
:2017E300B2D5F404A430D50AF42401C5F0F43400C5F02AFAEF35F0FFA2E7CA33CA33CA5431
:201803000130E00244FEA8158512828513838514F0E8122CE089828B838CF0EA022CE085DE
:20182300826585836685F06774032565FAE43566FBAC6774072565F578E43566F5798567A1
:201843007A740B2565F57BE43566F57C85677D756800E4FEB56802800E7401B56802802495
:201863007402B5685A803A8A828B838CF0122ED6700E857B82857C83857DF0122ED6603FE7
:201883007E01803B8A828B838CF0122ED6700E857882857983857AF0122ED660227E01805B
:2018A3001E857882857983857AF0122ED6700E857B82857C83857DF0122ED660027E01EEA7
:2018C30070030219D0C002C003C004E56875F003A4FE2469F9E568FD3395E0CD25E0CD33BD
:2018E300CD25E0CD33FFED2565FAEF3566FBAC678A828B838CF0122ED6F7EE2469FE04F9F2
:2019030074012DFBE43FFCEB2565FBEC3566FCAA678B828C838AF0122ED6FBF774022EF9C9
:2019230074022DFDE43FFFED2565FDEF3566FFAC678D828F838CF0122ED6F78E077D007C9A
:2019430040855E118F828D838CF0C006C004C003C0021214ADD002D003D004D0068E077D70
:20196300007C408560118F828D838CF0C006C004C003C0021215E2D002D003D004D0068E20
:20198300077D007C408562118F828D838CF0C006C004C003C002121702D002D003D004D0EC
:2019A300067F007D40E56825682472FC8C4E8F4F8D508E828F838DF0C004C003C0021213D4
:2019C30083D002D003D004D004D003D0020568C3E5686480948350030218558A828B838CAF
:2019E300F0122ED6601B7474C0E07400C0E07440C0E090007275F040121EE2158115811579
:201A030081857882857983857AF0122ED6601B7476C0E07400C0E07440C0E090007475F067
:201A230040121EE2158115811581857B82857C83857DF0122ED6601B7472C0E07400C0E06C
:201A43007440C0E090007675F040121EE215811581158122C010858110C082C083C0F0056E
:201A630081A81008740126FAE40836FB088604E5102404F87600A8100886820886830886EC
:201A8300F0122ED6FEE5102404F8C3E69E4003021B138A828B838CF0122ED6FDA3122ED60E
:201AA300FEA3122ED6FFC002C003C004E5102404F88603E4C454F0CBC4CB6BCB54F0CB6B90
:201AC300FCEB2DFDEC3EFEE51024FCF8865E08865FE51024FAF88660088661E51024F8F803
:201AE3008662088663E51024F7F886648D828E838FF0C004C003C002121822D002D003D06F
:161B030004E5102404F806D004D003D002021A79851081D0102287
:2067AF00000306090C0F1215181C1F2225282A2D303336393C3E414446494B4E5053555715
:2067CF005A5C5E6062646668696B6D6E7071737475767778797A7B7C7C7D7E7E7E7F7F7F77
:2067EF007F7F7F7F7E7E7E7D7D7C7B7A7A79787675747371706F6D6B6A68666462605E5C2C
:20680F005A585553514E4C494744413F3C393634312E2B2825221F1C191613100D0906034C
:20682F0000FDFAF7F4F1EDEAE7E4E1DEDBD8D5D2D0CDCAC7C4C2BFBCBAB7B4B2B0ADABA904
:20684F00A6A4A2A09E9C9A9896959392908F8D8C8B8A888787868584838382828281818160
:20686F00818181818282828383848586868788898B8C8D8E9091939596989A9C9EA0A2A469
:20688F00A6A8ABADAFB2B4B7B9BCBEC1C4C7C9CCCFD2D5D8DBDEE1E4E7EAEDF0F3F6F9FD0A
:0768AF0000400040008000E2
:201B1900AF82BF5000400122749C2511500122E5119068B6939069BA93FEE511C39EFDEF92
:201B3900C423541FFC74075FF5F005F07401800225E0D5F0FBFFEE2CFE24FC5004741C2E7D
:201B5900FE904020E0FC20E7F8EE0303543FFC90402674204CF0ED2D25E0FDE53542057469
:201B7900035E9040274DF09040287438F0904020E0FE20E7F8E5126009904021E0FE4FF0E8
:201B9900800AEFF4FF904021E0FE5FF09040287430F022AF82E5119068B6939069BA93FE48
:201BB900E511C39EFDEFC423541FFC2EFE54FC6004741C2EFE904020E0FC20E7F8EE030318
:201BD900543FFC90402674204CF0ED2D25E0FDE535420574035E9040274DF090402874386D
:201BF900F0904020E0FE20E7F874075FF5F005F07401800225E0D5F0FBFF904021E04FF090
:201C19009040287430F022C010E581F5102407F581AD82AE83AFF0E5102406F8122ED6F6FF
:201C3900E51024FBF886020886030886048A828B838CF0E5102407F8122ED6F60DBD00014F
:201C59000E8D828E838FF0122ED6FF0ABA00010B8A828B838CF0122ED6FEE5102406F8E533
:201C7900102407F9C3E6648087F063F08095F05014E5102406F88605E5102407F886048F84
:201C9900038E028012E5102407F88605E5102406F886048E038F02ECC39DFFA81008A607E8
:201CB900EAC39BFEA8100808A606A81008E6700AA8100808E67003021EDCA8100808E63036
:201CD900E713A8100808C3E496F6E5102403F876FF7F018009E5102403F876017F01A810A1
:201CF90008A9100909C3E7648086F063F08095F04003021DF6C007A81008A9100909E6C349
:201D190097FEE5102404F8A606A81008E6A2E713FFA8100808E6C39FFFE5102405F8A60741
:201D3900A810088606E63395E0FF0EBE00010FEFA2E713CE13CED0078B11E51024FAF88697
:201D5900128D82C007C006C005C004C003C002121B19D002D003D0048A11E51024FAF886C3
:201D7900128C82C004C003C002121B19D002D003D004D005D006D007EF2DFDECC39FFCE558
:201D9900102405F8E620E721E5102403F8E62BFBE5102403F8EAC396FAE5102405F8E5106F
:201DB9002404F9E6C397F6800CE5102405F8A9100909E726F61EC374808EF063F08095F098
:201DD9005003021D51A81008E620E00E8B11E51024FAF886128D82121B19021EDCC007A874
:201DF900100808A91009E6C397FEE5102404F8A606A8100808E6A2E713FEA81008E6C39E9A
:201E1900FEE5102405F8A606A81008088606E63395E0FF0EBE00010FEFA2E713CE13CED022
:201E3900078B11E51024FAF886128D82C007C006C005C004C003C002121B19D002D003D0DE
:201E5900048A11E51024FAF886128C82C004C003C002121B19D002D003D004D005D006D096
:201E790007E5102403F8E62BFBE5102403F8EAC396FAE5102405F8E620E717EF2DFDECC3EF
:201E99009FFCE5102405F8E5102404F9E6C397F6800BE5102405F8A91009E726F61EC37471
:201EB900808EF063F08095F05003021E3AA8100808E620E00E8B11E51024FAF886128D82FC
:201ED900121B19851081D01022C010E581F510240BF581AD82AE83AFF0E5102407F8122E54
:201EF900D6F6E51024FBF886020886030886048A828B838CF0E5102408F8122ED6F60DBDC1
:201F190000010E8D828E838FF0122ED6FF0ABA00010B8A828B838CF0122ED6FEE51024074B
:201F3900F8E5102408F9C3E6648087F063F08095F0501EE5102407F88605E5102408F8866A
:201F590004E5102409F8A607E510240AF8A606801CE5102408F88605E5102407F88604E50F
:201F7900102409F8A606E510240AF8A607ECC39DFFE510240AF8E5102409F9E6C397FEEFF1
:201F99007006EE7003022316EE30E70DC3E49EFEE510240BF876FF8007E510240BF8760116
:201FB900C3EE64808FF063F08095F04003022175C004EFC39EFAEFA2E713FCEEC39CFCE5FE
:201FD900102406F8A604EFFB3395E0FC0BBB00010CECA2E713CB13CBE5102405F8A603E5D6
:201FF90010240BF8C3748086F063F08095F0D00440030220B7E5102409F88603E510240A56
:20201900F8A91009E6F7E5102405F8A9100909E6F7E5102403F8A6058C058B11E51024034A
:20203900F88682C007C006C005C003C002121BACD002D003D005A8100886118D82C005C072
:2020590003C002121BACD002D003D005D006D007E5102403F8061DE5102406F8E620E71057
:202079000BA8100816E5102406F8E6C39AF68008E5102406F8EE26F6A810080816A81008CF
:2020990008C3748086F063F08095F0408DE5102409F8A603E5102403F88605022162E510F1
:2020B9002409F88603E510240AF8E5102404F9E6F7E5102405F8E5102403F9E6F7A8100883
:2020D90008A6058C058B11A81008088682C007C006C005C003C002121BACD002D003D0050D
:2020F900E5102404F886118D82C005C003C002121BACD002D003D005D006D007A8100808FA
:20211900061DE5102406F8E620E7121BE5102404F806E5102406F8E6C39AF68008E5102446
:2021390006F8EE26F6E5102403F816E5102403F8C3748086F063F08095F04089E5102409D0
:20215900F8A603A81008088605EF20E00CE5102409F886118D82121BAC022316C004EEC32E
:202179009FFAEEA2E713FBEFC39BFBE5102406F8A603EEFB3395E0FC0BBB00010CECA2E74B
:2021990013CB13CBE5102405F8A603E510240BF8C3748086F063F08095F0D00440030222CF
:2021B900608D03E5102404F8A604E5102405F8E5102403F9E6F7E5102409F88604E5102492
:2021D9000AF886058C118B82C007C006C005C004C003C002121BACD002D003D004D0058D60
:2021F90011E5102404F88682C005C004C003C002121BACD002D003D004D005D006D0070CAA
:202219001DE5102406F8E620E7120BE5102404F816E5102406F8E6C39AF68008E510240645
:20223900F8EF26F6E5102403F816E5102403F8C3748086F063F08095F040898B05E510244D
:2022590009F8A6040223068D03E5102405F8E5102404F9E6F7E5102409F8E5102403F9E6E1
:20227900F7E510240AF88605E5102403F886118B82C007C006C005C004C003C002121BAC7C
:20229900D002D003D004D0058D118C82C005C004C003C002121BACD002D003D004D005D026
:2022B90006D007E5102403F8160DE5102406F8E620E70D0B1CE5102406F8E6C39AF68008E1
:2022D900E5102406F8EF26F6E5102404F816E5102404F8C3748086F063F08095F040898BAA
:2022F90005E5102403F8E5102409F9E6F7EE20E00CE5102409F886118D82121BAC8510810B
:20231900D01022C010858110C082C083E5812407F581E5102406F87600087600A8100886DF
:2023390002088603A81008E5102408F9E6F70809E6F7E5102406F8C3EA96EB64800886F0A5
:2023590063F08095F05003022596E5102406F88607E51024FCF8E6FE2FFD8A04C002C00328
:20237900E51024FAF88603E5102403F8EB2CF6E5102403F88611E51024F9F886128D82C073
:2023990007C006C005C004C003C002121B19D002D003D004D005D006D007E5102404F8EE05
:2023B9002CF6EB2FFA8A11E51024F9F88612E5102404F88682C007C006C005C004C003C0DB
:2023D90002121B19D002D003D004D005D006D007E5102405F8C3E49FF6E5102405F8EE2625
:2023F900FFE5102403F88611E51024F9F886128F82C007C006C005C004C003C002121B1986
:20241900D002D003D004D005D006C3E49CFC2EFE8A11E51024F9F886128E82C006C005C07C
:2024390004C003C002121B19D002D003D004D005EB2CFC8C11E51024F9F886128D82C00441
:20245900C003C002121B19D002D003E5102405F8EB26FB8B11E51024F9F88612E510240476
:20247900F88682C003C002121B19D002D003D004D006D0078C11E51024F9F886128F82C042
:2024990006C003C002121B19D002D003D0068B11E51024F9F886128E82C003C002121B19BE
:2024B900D002D003E5102406F8860608E6CE25E0CE33FFE5102408F8C3E69E08E664808F39
:2024D900F063F08095F0D003D0024029E5102408F8E6C39EFE08E69FFFE5102408F8EE2478
:2024F900FFF6EF34FF08F6E5102406F806B60002080602234BA81008E6C39AFE08E69BCE03
:2025190025E0CE33FFE5102408F8C3E69E08E664808FF063F08095F0502B8A06EBCE25E0CB
:20253900CE33FFE5102408F8EE26FEEF0836FFE5102408F8EE24FFF6EF34FF08F61ABAFF18
:20255900011B02234BE5102406F8EAC396FEEB0896FF1EBEFF011FEFCE25E0CE33FFE51044
:202579002408F8EE26F6EF0836F61ABAFF011BE5102406F806B60002080602234B85108199
:03259900D010223D
:2068B60000000000000000000000010101010101010101010202020202020202020203039E
:2068D600030303030303030304040404040404040404050505050505050505050606060618
:2068F600060606060606070707070707070707070808080808080808080809090909090992
:20691600090909090A0A0A0A0A0A0A0A0A0A0B0B0B0B0B0B0B0B0B0B0C0C0C0C0C0C0C0C0B
:206936000C0C0D0D0D0D0D0D0D0D0D0D0E0E0E0E0E0E0E0E0E0E0F0F0F0F0F0F0F0F0F0F85
:206956001010101010101010101011111111111111111111121212121212121212121313FD
:20697600131313131313131314141414141414141414151515151515151515151616161677
:206996001616161616161717171717171717171718181818181818181818191919191919F1
:1169B60019191919000A141E28323C46505A646E7860
:20259C007E087F007C007D00904020E0FB20E7F88C828E11751200751300C007C006C00549
:2025BC00C0041226E5D004D005D006D0079040217420F09040227401F09040237437F090DE
:2025DC0040287401F00CBC00010DC3EC9428ED6480948040B30EBE00010FC3EE9421EF6464
:2025FC00809480409F22AF82904020E0FE20E7F8EF70089040217426F080069040217472ED
:20261C00F0904026E4F0904027F0904025F0904024F09040287484F0229040287490F090B6
:20263C004020E0FF20E7F8904020E0FF20E7F8904021740CF09040287481F0904020E0FF65
:20265C0020E7F8904021740CF09040287481F0904020E0FF20E7F89040217402F090402804
:20267C007483F0904020E0FF20E7F8904021E4F09040287482F0904020E0FF20E7F8904048
:20269C00287490F0904026E4F0904027F0904020E0FF20E7F89040217408F0904028748733
:2026BC00F0904020E0FF20E7F89040217426F0904026E4F0904027F0904025F0904024F04B
:2026DC009040287484F002259CAF82E512C42354E0FE741F55119040264EF0E5130303547B
:2026FC00C0FE743F5F9040274EF022C010858110AF827E009040237437F07D00E51024FBE3
:20271C00F8C3ED96506974082DFCE51024FDF8E62CFC7B00E51024FCF8C3EB96504E9040AB
:20273C0020E0FA20E7F8EF2BFA8C117512007513008A82C007C006C005C004C0031226E5C2
:20275C00D003D004D005D006D007904020E0FA20E7F8904021EEF090402274A5F0904028A9
:20277C007401F00EBE04027E200B80A80D808DD01022C010858110C082C083C0F0E5812474
:20279C0004F581904026E4F0904027F0E4FFFEE5102406F87600E5102406F8E675F00AA474
:2027BC00FAE5102407F87600E5102407F8E625E025E0FBE5102404F8A60708A6067C00C0C0
:2027DC0003EA2CFDC374039DD0035004741C2DFDC003904020E0D00320E7F5C002A810082B
:2027FC00E5102404F9E726FA09E70836FE0886078A828E838FF0122ED6FA904021F0ED0362
:20281C0003543FFF90402674204FF074035D9040274BF09040287430F0E5102404F806B6DB
:20283C00000208060CBC0A00D0024093E5102404F88607088606E5102407F806E510240781
:20285C00F8B60A0050030227C4E5102406F806E5102406F8B60A0050030227B2851081D05C
:20287C001022C010858110C082C083C0F0E5812404F581904026E4F0904027F0E4FFFEE574
:20289C00102406F87600E5102406F8E51024FCF9C3E6974003022972E5102406F8E51024FF
:2028BC00FDF986F0E7A4FAE5102407F87600E5102407F8E625E025E0FBE5102404F8A607B8
:2028DC0008A6067F00E51024FDF8C3EF965061EA2FFE24FC5004741C2EFE904020E0FD206E
:2028FC00E7F8C002A81008E5102404F9E726FA09E70836FC0886058A828C838DF0122ED6D3
:20291C00FA904021F0EE0303543FFD90402674204DF074035E9040274BF09040287430F0E2
:20293C00E5102404F806B6000208060FD0028095E5102404F88607088606E5102407F80650
:20295C00E5102407F8B60A0050030228CAE5102406F8060228A2851081D01022C010E58105
:20297C00F5102404F581AF82904026E4F0904027F07D007E00904020E0FC20E7F8904021FF
:20299C00EFF0E5102404F87600E5102404F8E625E025E0FC8D028E037D00EDFE24FC5004B4
:2029BC00741C2DFEC004904020E0D00420E7F5EE0303543FFF90402674204FF0EC4535FF28
:2029DC00C00474035EFC9040274FF09040287430F00ABA00010B0DBD0A00D00440BC8A0581
:2029FC008B06E5102404F806E5102404F8B60A004097E5102403F87601E5102403F8E67569
:202A1C00F00AA4FB7A00EA2A25E0FCA81008A60508A6067D00C002741C2D2BFED002C0029A
:202A3C00904020E0D00220E7F5C002EE0303543FFA90402674204AF0EC4535FA74035EFFA1
:202A5C009040274AF09040287430F0A8100806B6000208060DBD0A00D00240B9A81008862C
:202A7C00050886060ABA0A00409CE5102403F806E5102403F8B60A005003022A158510815F
:202A9C00D01022AF82D294AD2D7E00532DFC902000E52DF07C008CF005F07A017B00800692
:202ABC00EA2AFAEB33FBD5F0F78F007900E85202E95203EA4B6004D2928002C292C294D29A
:202ADC00940CBC040040CF7F008FF005F07B017C008006EB2BFBEC33FCD5F0F7A90E7A00E1
:202AFC00E95203EA5204EB4C6004D2928002C292C294D2940FBF040040CF8D2D902000E57B
:202B1C002DF022AF82D294AD2D7E00532DFC902000E52DF07C008CF005F07A017B008006D4
:202B3C00EA2AFAEB33FBD5F0F78F007900E85202E95203EA4B6004D2928002C292C294D219
:202B5C00940CBC040040CF7F008FF005F07B017C008006EB2BFBEC33FCD5F0F7A90F7A005F
:202B7C00E95203EA5204EB4C6004D2928002C292C294BF03028002D2940FBF040040CA8D7B
:202B9C002D902000E52DF022752D0B902000E52DF0750E00758200122A9F750E02758200E8
:152BBC00122A9F750E03758203122A9F750E04758200022A9F85
:0B2BD100A8811818C6B2E7C6022DBE8E
:202BDC00122C7FBC0003022E8EEF60FA30D502B2D1E583B4FF03022EA4E582B4FF03022E8D
:202BFC00A4258340072482400B022E8E2483145003022EA4F582EA8DF0A4A8F0EA8EF0A46F
:202C1C0028F8E435F0F9EB8DF0A428E935F0F9E433CA8FF0A429F9EA35F0FAEBF88EF0A407
:202C3C0029F9EA35F0FAE433FBEC8DF0A429F9EA35F0FAE43BFBE88FF0A42AFAEB35F0FBAF
:202C5C00E433CCFD8EF0A42AFAEB35F0FBE43CFCED8FF0A42BFBEC35F0FC20E703122CADD3
:032C7C00022E6DB8
:202C7F00AA82AB83A2F73392D1F5826002D2F7ACF0E58124F9F8E6FD08E6FE0886F008E6B8
:0E2C9F00A2F73392D5F5836002D2F7AFF02290
:06005000E478FFF6D8FD84
:202CAD007804EC7011E58224F8500AF582E4C9CACBFCD8EF22EC7820058220E713D5820126
:132CCD0022C3E933F9EA33FAEB33FBEC33FCD8EA15822234
:20002E007900E94400601B7A009069C7780075A000E493F2A308B8000205A0D9F4DAF27549
:02004E00A0FF11
:1B2CE00020F71130F6138883A88220F509F6A8837583002280FEF280F5F022F3
:202CFB00FFA8811818122E35D2D133E6400730E70B7582002220E70675820122C2D1122EB4
:102D1B0017E97003F5822220D101B3E433F5822247
:1D2D2B00E5828511F0A4C582C0F08512F0A4D0F025F0C5838511F0A42583F583224F
:202D4800E511451260467A01E51125E0F511E512334012F512E5829511E583951240030A10
:202D680080E6C3E51213F512E51113F511C3E5829511F5F0E58395124005F58385F082C3C7
:0D2D8800E51213F512E51113F511DAE12241
:202D95007A10E4FBFCE58225E0F582E58333F583EB33FBEC33FCEB9511F5F0EC9512400640
:092DB500FCABF0438201DADD22DF
:200056007800E84400600A790075A000E4F309D8FC7800E84400600C7900900000E4F0A3AA
:04007600D8FCD9FADF
:202DBE00122C7F7900E583B58202800D5003122EBCE583C39582122F8DE5D0C465D020E183
:202DDE0017EA2DFAEB3EFBEC3FFC50097401122F8DEC4480FC022E6DC3EA9DFAEB9EFBECC9
:192DFE009FFC500FC3E499F9E49AFAE49BFBE49CFCB2D1122CAD022E6D10
:202E17007901AA82E68F82B5821318E6B5F00E18E6B5830918E68A82B58202790022B480B2
:202E37000FE5F0700AE5837006E58270027F00EFB6801518B6001018B6000B18B60006081A
:092E570008087600220808082290
:0D2E6000AC83AB827A007900748E022F31B2
:202E6D00B98003EA13B34010EA2401FAE43BFBE43CFC50047C800582BC000EBB000BBA00A9
:202E8D0008E4F5F0F583F58222A2D1E582138CF092F78B838A8222E4F583F58275F080F469
:0F2EAD00A2D11322E4F583F58275F0C0747F2261
:1A2EBC00E582C583F582A2D133A2D592D11392D5ECCFFCEBCEFBEACDFA229E
:0D00210075817D122FD0E582600302001E64
:1C2ED60020F71430F6148883A88220F507E6A88375830022E280F7E49322E0220B
