:0400000002002332A5
:03000B0002013EB1
:0100130032BA
:03001B000200BB25
:04007C007521EF7586
:03008000223075B6
:04008300238075243D
:03008700D7752505
:05008A003475268075AD
:03008F0027BF7513
:0300920028387596
:040095002980752A1F
:03009900A7752B1D
:04009C003C752C8003
:0300A00002001E3D
:05001E00120CD580FE6C
:0A00A300AA82AB837532008A338B0A
:0400AD003475320173
:0500B1001ABAFF011B5B
:0500B600E53270F722A5
:0C00BB00C020C0E0C0F0C082C083C002C2
:0E00C700C003C004C005C006C007C000C001D1
:0C00D500C0D075D000C37482852FF0638A
:0C00E100F08095F05032752F00D294E5AD
:0A00ED002E30E214750E0375820335
:0A00F700122BBE750E047582041270
:040101002BBE80127F
:0A010500750E03758203122BBE7500
:08010F000E04758208122BBEDC
:02011700052EB3
:0C011900052F758D07758BF0D0D0D0013C
:0E012500D000D007D006D005D004D003D00201
:0B013300D083D082D0F0D0E0D020328A
:0C013E00C0E0C0D075D00074012530F581
:05014A0030E43531F541
:06014F0031E532601115DC
:070155003374FFB5330215FE
:01015C00346E
:07015D00E53345347002F5A3
:010164003268
:0B016500758C1F758AF0D0D0D0E032FE
:0E0170007A007B00904021747FF09040227452
:07017E0001F0E4F536F5374E
:0A018500C3E5369418E53764809452
:03018F0080506835
:0C019200904020E0FE20E7F8AE36740834
:07019E002EF511751200752A
:0C01A5001300758200C002C0031227A6E0
:0C01B100D003D0028A068B07780079008A
:0B01BD00C3E89428E96480948050247B
:0E01C800904020E0FC20E7F89040237411F0F6
:0B01D6009040287401F00EBE00010FE5
:0B01E1008E028F0308B800D40980D103
:0A01EC008E028F030536E4B5368F4E
:0401F6000537808BBE
:0501FA00E4F538F539C1
:0A01FF00C3E53964809481400122B9
:05020900E4F536F537B5
:0A020E00C3E5369416E537648094CA
:0602180080400302029881
:0C021E00904020E0F820E7F8A8367409B2
:07022A0028F51175120075A3
:0C0231001300758200C002C0031227A653
:0C023D00D003D0028A008B017C007D0001
:0B024900C3EC9428ED648094805035D5
:0C025400904020E0FE20E7F8E824E6F5EA
:0C02600082E93453F583E493C454F0FEAB
:0E026C0090402374014EF09040287401F00879
:04027A00B8000109BE
:0B027E00880289030CBC00C30D80C087
:0A028900880289030536E4B5360249
:0202930005372D
:0302950002020E54
:040298007C887D13CE
:05029C001CBCFF011D68
:0A02A100EC4D70F7751106F512859B
:0602AB0038828539831240
:0702B100300D8582118583E9
:0C02B80012900370122E46AA82AB830540
:0602C40038E4B538020524
:0102CA0039FA
:0302CB000201FF2E
:0902CE00122659E4FAFBF530F5A3
:0102D70031F5
:0A02D800C3E5309401E531940040C5
:0902E200F57C007D007E007F0028
:0A02EB00EE2474F582EF3448F58329
:0802F500E493F870030203B06A
:0C02FD00B80A0C7A007B000CBC00010D5C
:030309000203A844
:0E030C00904020E0F820E7F88A828C00740808
:07031A0028F51175120075B2
:0C0321001300C002C003C004C005C006E9
:0C032D00C0071227A6750F01758202128E
:0E0339002C42D007D006D005D004D003D0024D
:0C034700904020E0F820E7F8EE2474F568
:0C03530082EF3448F583E493F8904021D9
:0E035F00F09040227401F09040237471F090F1
:0A036D0040287401F00ABA00010BE9
:05037700E4F530F53152
:0A037C00C3E5309401E53194004020
:0C038600F5750E01758202C002C003C0B4
:0E03920004C005C006C007122BBED007D0065F
:0803A000D005D004D003D00207
:0503A8000EBE00010F74
:0303AD000202EB5E
:0E03B000900082C002C0031200A312265974EE
:0E03BE0004C0E07419C0E090447775F080121E
:0E03CC00294515811581E4C0E07404C0E07479
:0E03DA0019C0E0740AC0E07582071227C8E55A
:0E03E8008124FCF58190001E1200A3D003D0EA
:0903F60002E4F542F543FEFFF5B7
:0403FF003CF53DF597
:040403003EF53F750E
:060407004401E4F545F597
:03040D0046F5476A
:06041000E53C2542FCE57D
:050416003D3543FD75BA
:0A041B0011147512008C828D83C04D
:0E04250002C003C006C00712300DAC82AD83CA
:0A043300D007D006E53C2EF540E5A9
:05043D003D3FF5417593
:0604420011147512008583
:0A0448004082854183C004C005C056
:0B04520006C00712300D858240858334
:0C045D0041D007D006D005D004D003D059
:010469000290
:0E046A00904020E0F820E7F89040227401F066
:0C0478009040237437F08A82A83C74087E
:0704840028F5117512007547
:0B048B001300C004C005C006C007122B
:0E04960027A6D007D006D005D00474075C79E5
:0E04A40000C454F0F8904023740748F0E4F5CB
:0304B2003AF53BDD
:0A04B500C3E53A9428E53B64809407
:0304BF008050402A
:0C04C200904020E0F820E7F8EC245FF503
:0C04CE0082ED3448F583E493F89040215F
:0C04DA00F09040287401F00CBC00010DF3
:0A04E600EC245FF8ED3448F9888239
:0804F0008983E4937002FCFD16
:0704F800053AE4B53AB7052F
:0304FF003B80B38C
:040502007A007B0000
:0C050600904020E0F820E7F8A83C7417B3
:0A051200C3982408F5117512007556
:0C051C001300758200C004C005C006C0BA
:0E052800071227A6D007D006D005D004530432
:0E05360007ECC454F0FC90402374074CF07C9A
:03054400007D0037
:0B054700C3EC9428ED64809480504ABF
:0B055200904020E0F820E7F8E540248E
:06055D005FF582E5413468
:0B05630048F583E493F8904021F090ED
:0A056E0040287401F00540E4B54098
:0305780002054138
:06057B00E540245FF8E5F5
:0A058100413448F988828983E4932D
:06058B007004F540F5418B
:050591000CBC00010D8F
:060596008C028D0380AB16
:0A059C008C028D03053CE4B53C021F
:0205A600053D11
:0605A800C3E53C9544E5AB
:0A05AE003D64808545F063F0809500
:0605B800F05003020410E4
:0705BE000542E4B54202050D
:0105C50043F2
:0A05C600C3E5429414E543648094F9
:0805D000804005E4F542F5430B
:0A05D8007414C39542FEE49543FF3E
:0E05E200900001C002C003C006C0071200A3B3
:0C05F000D007D006D003D002E4F53CF5A3
:0505FC003D053EE4B5E1
:040601003E02053F71
:0A060500C37410953E7480853FF029
:0C060F0063F08095F0501AC3E544940A93
:0A061B00E545648094805008054412
:06062500E4B544020545A6
:05062B00E4F53EF53F7F
:0A063000C3E544940AE54564809494
:0A063A0080E433FC70080546E4B5C7
:04064400460205471E
:06064800EC600302041047
:0A064E00C3E5469480E54794005090
:040658000302041085
:01065C00227B
:0A065D00C010E581F510241FF5819F
:0A066700753500758200122A4AE57D
:06067100102402FA7B00D8
:03067700BB1900AC
:0E067A00500DEB2AF8EB90688693FCF60B808F
:01068800EE83
:020689007B00F4
:03068B00BB0300AE
:0A068E005040EB75F00AA4FC7D005B
:03069800BD04009E
:0E069B005030ED75F00AA4F582C002C003C015
:0E06A90004C005E4C0E0740AC0E0740AC0E0BA
:0E06B700C0041227C8E58124FCF581D005D0CF
:0806C50004D003D0020D80CB2C
:0306CD000B80BBE4
:0406D0007B007C002F
:0C06D400C3EB94F4EC9405400302083ED4
:0E06E00074035BFD7E00E4BD0304BE00010454
:0C06EE00FFE510241BF8E4BD0204BE0070
:0206FA000104F9
:0A06FC00F6E510241BF8E510241C9D
:0B070600F9E6F7E510241DF8A607E552
:0C07110010241EF8A607E4BD0104BE0081
:02071D000104D5
:03071F00FD7E005C
:03072200BE1900FD
:0507250040030208364C
:0C072A00C005EE2AF88605A81008A605F8
:0A073600EE2E25E0F511751200A863
:0C07400010088682C002C003C004C0057F
:0E074C00C006C007121B89D007D006D005D00A
:0C075A0004D003D002E510241FF8740343
:0C0766005EF6E510241FF8C3740396D063
:060772000550030208011E
:0C077800E510241FF8E625E02690078518
:010784007301
:070785000207910207A40224
:05078C0007C50207E8AB
:0A079100A8100816A81008B65000C2
:09079B004064A81008764F805D4F
:0C07A400E510241BF8E67006EF7003ED72
:0207B000604F98
:0A07B200A8100816A81008B65000A1
:0907BC004043A81008764F803C70
:0A07C500E510241CF8E67008E510AA
:0607CF00241EF8E6602C78
:0A07D500A8100816A81008B650007E
:0907DF004020A81008764F801993
:0A07E800E510241DF8E66011A810CA
:0807F2000816A81008B650001B
:0707FA004005A81008764F2E
:0C080100EE2AF8A91009E7F6EE2E25E01B
:06080D00F511751201A8AF
:0C08130010088682C002C003C004C005AB
:0E081F00C006C007121B89D007D006D005D036
:09082D0004D003D0020E020722E0
:050836000BBB00010CEA
:03083B000206D4DE
:06083E00851081D010229C
:0A084400C010E581F510241CF581B9
:08084E00758200122A4A7A00AB
:03085600BA0300E2
:0A085900503CEA75F00AA4FB7C0095
:03086300BC0400D2
:0E086600502CEC75F00AA4F582C002C003C04D
:0E08740004E4C0E0740AC0E0740AC0E0C003EF
:0E0882001227C8E58124FCF581D004D003D0F4
:04089000020C80CF07
:030894000A80BF18
:0A089700E5102403F876000876004F
:0C08A100E5102403F8C3E6946408E66444
:0808AD008094804003020CCC92
:0B08B500E5102403F8868208868312F9
:0E08C0002F7BAC82AD83AEF0FF740AC0E074F3
:0E08CE00D7C0E07423C0E0743DC0E08C828D82
:0E08DC00838EF0EF122D03AC82AD83AEF0FFE1
:0E08EA00E58124FCF581C004C005C006C007EE
:0E08F800900000E4F5F074C0122ED9AC82AD71
:0C09060083AEF0FFE58124FCF581E510D4
:0E0912002409F8A60408A60508A60608A607EC
:0C092000E4C0E0C0E0C0E0C0E0E510244E
:0D092C0009F886820886830886F008E61226
:0E0939002E16AA82E58124FCF581EA703C743A
:0E0947000AC0E074D7C0E074A3C0E0743CC0E6
:0C095500E0E5102409F88682088683087B
:0E09610086F008E6122E16AA82E58124FCF527
:0C096F0081EA6053E5102409F8E4F60862
:07097B00F608F608F68044BF
:0C098200E5102409F886020886030886A8
:0E098E000408E6B2E7FD740AC0E074D7C0E0CA
:0E099C0074A3C0E0743CC0E08A828B838CF0B0
:0E09AA00ED122E16AA82E58124FCF581EA608A
:0C09B8000DE5102409F8E4F608F608F636
:0209C40008F633
:0809C600A81008760008760075
:0C09CE00A81008C3E6945008E66480946A
:0609DA00804003020CBE88
:0C09E000A810088682088683122F7BACCA
:0E09EC0082AD83AEF0FF74CDC0E074CCC0E0ED
:0E09FA00744CC0E0743DC0E08C828D838EF0A2
:0E0A0800EF122D03AC82AD83AEF0FFE581242A
:0E0A1600FCF581C004C005C006C007900000BA
:0C0A240075F02074C0122ED9C8E5102413
:0E0A300005C8A68208A68308A6F008F6E58190
:0C0A3E0024FCF581E510240DF8E4F60816
:0C0A4A00F608F608F6E5102411F8E4F6B2
:0C0A560008F608F608F6E5102415F8E490
:0C0A6200F608F608F608F6E5102419F86E
:0C0A6E00E4F608F608F608F67E007F00AB
:0E0A7A00C3EE9414EF648094804003020C805D
:0C0A8800C006C007E5102419F8E6C0E025
:0D0A940008E6C0E008E6C0E008E6C0E0E5C6
:0C0AA100102415F886820886830886F071
:0E0AAD0008E6122ED9AA82AB83ACF0FDE581DB
:0E0ABB0024FCF581E4C0E07424C0E07474C033
:0D0AC900E07449C0E08A828B838CF0ED124E
:0E0AD6002E16AA82E58124FCF581D007D006F9
:060AE400EA7003020C8021
:0C0AEA00C006C007E510240DF8E6C0E0CF
:0D0AF60008E6C0E008E6C0E008E6C0E090B9
:0E0B03000000E4F5F07440122D03AA82AB83CB
:0C0B1100ACF0FDE58124FCF581E510242A
:0E0B1D0011F8E6C0E008E6C0E008E6C0E00817
:0E0B2B00E6C0E08A828B838CF0ED122D03AAC7
:0D0B390082AB83ACF0FDE58124FCF581E585
:0C0B4600102409F8E6C0E008E6C0E00852
:0E0B5200E6C0E008E6C0E08A828B838CF0EDFE
:0E0B6000122ED9AA82AB83ACF0FDE58124FCF5
:0C0B6E00F581E5102411F8A60208A6038A
:0C0B7A0008A60408A605E5102419F8E6FA
:0E0B8600C0E008E6C0E008E6C0E008E6C0E017
:0C0B9400E5102415F88682088683088688
:0E0BA000F008E6122CF8AA82AB83ACF0FDE55B
:0C0BAE008124FCF581E5102405F8E6C068
:0E0BBA00E008E6C0E008E6C0E008E6C0E08A19
:0E0BC800828B838CF0ED122ED9AA82AB83AC07
:0C0BD600F0FDE58124FCF581E510240D04
:0D0BE200F8A60208A60308A60408A605E56B
:0C0BEF0010240DF8E6C0E008E6C0E008A5
:0C0BFB00E6C0E008E6C0E0E510240DF8BC
:0E0C070086820886830886F008E6122D03AA6E
:0D0C150082AB83ACF0FDE58124FCF581E5A8
:0C0C2200102415F8A60208A60308A6047A
:0C0C2E0008A605E5102411F8E6C0E00857
:0C0C3A00E6C0E008E6C0E008E6C0E0E527
:0C0C4600102411F886820886830886F0CE
:0E0C520008E6122D03AA82AB83ACF0FDE5810B
:0C0C600024FCF581D007D006E510241913
:0E0C6C00F8A60208A60308A60408A6050EBEF8
:030C7A0000010F67
:030C7D00020A7AEE
:080C8000BE1405BF0002802A2A
:0A0C88007511027512008E828F8331
:0D0C920012300DE5828583F045F06014A856
:0A0C9F0010088602E5102403F88611
:070CA900117512018A82128D
:020CB0001B899E
:090CB200A8100806B600020806AD
:030CBB000209CE5D
:0B0CBE00E5102403F806B6000208064B
:030CC9000208A17D
:090CCC00900000851081D0102277
:070CD5001226F6122CCB538E
:0A0CDC002DFD902000E52DF0E4F559
:0A0CE600A8F530F531758911D28EA2
:0C0CF000D28CD2ABD2A9D2AFE4F535C053
:0E0CFC00E0740AC0E0740AC0E07405C0E07540
:0D0D0A00820F1227C8E58124FCF5817A00D4
:050D17007406B50200A6
:090D1C0040F9EA2A2A900D257322
:070D2500020D3A020DCF029E
:060D2C000E92020E9A0275
:060D32000F250211E7028B
:020D38000E8724
:0A0D3A0012265990408F75F08012C8
:060D4400284FE4F54AF51A
:010D4A004B5D
:0A0D4B00C3E54A940CE54B940050F8
:050D55004A7D007E0054
:0C0D5A00C3ED9404EE94005033E54A25EC
:0E0D6600E0FF8D03EB75F00AA4F582C005C016
:0E0D740006E4C0E07402C0E0740AC0E0C007EC
:0E0D82001227C8E58124FCF581D006D0050DAE
:060D9000BD00C70E80C487
:070D9600054AE4B54AAF0570
:030D9D004B80ABDD
:0E0DA0009000961200A3E4C0E0740AC0E07454
:0E0DAE000AC0E07407C0E075820F1227C8E586
:0E0DBC008124FCF5819000641200A31202CE87
:050DCA007A06020D177E
:070DCF00122659120844909E
:0A0DD60034D775F08012284FE4F5C1
:030DE0004AF54B86
:0A0DE300C3E54A9403E54B94005069
:050DED004C7D007E00BA
:0C0DF200C3ED9404EE94005035E54A7502
:0E0DFE00F00AA4FF8D03EB75F00AA4F582C085
:0E0E0C0005C006E4C0E0740AC0E0740AC0E04D
:0E0E1A00C0071227C8E58124FCF581D006D060
:080E2800050DBD00C50E80C2DE
:070E3000054AE4B54AAD05D7
:030E37004B80A944
:040E3A007B007C00BD
:0D0E3E00C3EB9440EC9400503574035BF559
:0A0E4B0011751200900003C003C0EF
:0C0E550004122E46E5822421F8860508D0
:0E0E6100860608860718188D828E838FF01281
:0D0E6F00284FD004D0030BBB00C50C80C27F
:0B0E7C009000501200A37A00020D1736
:090E87001226591201707A0202D0
:020E90000D173C
:080E920012065D7A03020D1740
:0B0E9A00753500758200122A4AE4F54D
:030EA5004AF54BC0
:0A0EA800C3E54A9403E54B940050A3
:050EB2004C7D007E00F4
:0C0EB700C3ED9404EE94005035E54A753C
:0E0EC300F00AA4FF8D03EB75F00AA4F582C0BF
:0E0ED10005C006E4C0E0740AC0E0740AC0E088
:0E0EDF00C0071227C8E58124FCF581D006D09B
:080EED00050DBD00C50E80C219
:070EF500054AE4B54AAD0512
:030EFC004B80A97F
:040EFF007B007C00F8
:0D0F0300C3EB9450EC940050147D637E000D
:050F10001DBDFF011EE4
:0B0F1500ED4E70F70BBB00E60C80E314
:050F20007A04020D1728
:0A0F2500753500758200122A4A7526
:0A0F2F003540758200122A4AE4F5ED
:040F390035F54AF54B
:010F3D004B68
:0A0F3E00C3E54A9403E54B9400500C
:050F48004C7D007E005D
:0C0F4D00C3ED9404EE94005035E54A75A5
:0E0F5900F00AA4FF8D03EB75F00AA4F582C028
:0E0F670005C006E4C0E0740AC0E0740AC0E0F1
:0E0F7500C0071227C8E58124FCF581D006D004
:080F8300050DBD00C50E80C282
:070F8B00054AE4B54AAD057B
:030F92004B80A9E8
:060F9500E4F54CF54DF5FA
:030F9B0050F551BD
:0A0F9E00C3E54C9480E54D9400502B
:0C0FA800607401554CFF7B008F04EC03CB
:0C0FB4000354C0F535758200C003C0076F
:060FC000122A4AE54C254F
:0A0FC6004CFCE54D33FD7401C0E062
:090FD000C004C005C050C051C0AE
:040FD9004CC04D902B
:0E0FDD0053E275F080121AC6E58124F9F58101
:0C0FEB00D007D0038F821226C3740325A8
:050FF70050F550E43547
:040FFC0051F5510555
:061000004CE4B54C99051B
:031006004D809585
:06100900E4F54CF54DF585
:03100F0050F55148
:0A101200C3E54C9480E54D940050B6
:0C101C00607401554CFF7B008F04EC0356
:0C1028000354C0F535758200C003C007FA
:06103400122A4AE54C25DA
:0A103A004CFCE54D33FD7401C0E0ED
:09104400C004C005C050C051C039
:04104D004CC04D90B6
:0E105100539E75F080121AC6E58124F9F581D0
:0C105F00D007D0038F821226C374032533
:05106B0050F550E435D2
:0410700051F55105E0
:061074004CE4B54C9905A7
:03107A004D809511
:06107D00E4F54CF54DF511
:0310830050F551D4
:0A108600C3E54C9480E54D94005042
:0C109000607401554CFF7B008F04EC03E2
:0C109C000354C0F535758200C003C00786
:0610A800122A4AE54C2566
:0A10AE004CFCE54D33FD7401C0E079
:0910B800C004C005C050C051C0C5
:0410C1004CC04D9042
:0E10C500531A75F080121AC6E58124F9F581E0
:0C10D300D007D0038F821226C3740325BF
:0510DF0050F550E4355E
:0410E40051F551056C
:0610E8004CE4B54C990533
:0310EE004D80959D
:0610F100E4F54CF54DF59D
:0310F70050F55160
:0A10FA00C3E54C9480E54D940050CE
:0C110400607401554CFF7B008F04EC036D
:0C1110000354C0F535758200C003C00711
:06111C00122A4AE54C25F1
:0A1122004CFCE54D33FD7401C0E004
:09112C00C004C005C050C051C050
:041135004CC04D90CD
:0E11390049BE75F080121AC6E58124F9F581D1
:0C114700D007D0038F821226C37403254A
:0511530050F550E435E9
:0411580051F55105F7
:06115C004CE4B54C9905BE
:031162004D809528
:06116500E4F54CF54DF528
:03116B0050F551EB
:0A116E00C3E54C9480E54D94005059
:0C117800607401554CFF7B008F04EC03F9
:0C1184000354C0F535758200C003C0079D
:06119000122A4AE54C257D
:0A1196004CFCE54D33FD7401C0E090
:0911A000C004C005C050C051C0DC
:0411A9004CC04D9059
:0E11AD00526675F080121AC6E58124F9F581AC
:0C11BB00D007D0038F821226C3740325D6
:0511C70050F550E43575
:0411CC0051F5510583
:0611D0004CE4B54C99054A
:0311D6004D8095B4
:0C11D9007535007582001226C37A0502ED
:0211E5000D17E4
:0A11E700753500758200122A4A7562
:0A11F1003540758200122A4AE4F529
:0411FB0035F54AF587
:0111FF004BA4
:0A120000C3E54A9403E54B94005047
:05120A004C7D007E0098
:0C120F00C3ED9404EE94005035E54A75E0
:0E121B00F00AA4FF8D03EB75F00AA4F582C063
:0E12290005C006E4C0E0740AC0E0740AC0E02C
:0E123700C0071227C8E58124FCF581D006D03F
:08124500050DBD00C50E80C2BD
:07124D00054AE4B54AAD05B6
:031254004B80A923
:041257007B007C009C
:0E125B00C3EB9428EC9400502EC003C0047422
:0E12690001C0E07432C0E0E4C0E07428C0E0D0
:0E127700E4C0E08B828C831223D9E58124FB36
:0D128500F581D004D0030BBB00CC0C80C958
:041292007B007C0061
:0E129600C3EB9428EC9400502DC003C004E478
:0E12A400C0E07432C0E0E4C0E07428C0E0E4B2
:0E12B200C0E08B828C831223D9E58124FBF5EA
:0C12C00081D004D0030BBB00CD0C80CA11
:0612CC00E4F548F5497548
:0612D2004A14754B007583
:0512D8004C90754D0172
:0E12DD007401C0E07432C0E0E4C0E07428C0C8
:0A12EB00E0E4C0E0854A82854B83F1
:0E12F5001223D9E58124FBF581E4C0E07432B8
:0D130300C0E0E4C0E07428C0E0E4C0E08574
:06131000488285498312AA
:0C13160023D9E58124FBF5810548E4B5EE
:04132200480205492F
:0A132600C3E5489441E549940040F6
:0613300005E4F548F54953
:07133600054AE4B54A020577
:01133D004B64
:0A133E00C3E54A9441E54B940040DA
:0613480005E4F54AF54B37
:08134E00154C74FFB54C0215AB
:011356004D49
:07135700E54C454D60030267
:02135E0012DD9E
:06136000E4F548F54975B3
:061366004A01E4F54BF51D
:03136C004EF54FEC
:0A136F00C3E54E940AE54F940040D8
:041379000302141146
:0C137D00758200122A4A7401554EFF7B55
:05138900007C287D003E
:0E138E00C003C004C005C0077401C0E0743283
:0D139C00C0E0E4C0E07428C0E0E4C0E085DB
:0613A9004A82854B83120D
:0E13AF0023D9E58124FBF581D007D005D004B9
:0A13BD00D00374022548F548E4351A
:0513C70049F549C3E5F2
:0A13CC00489441E54994004005E40F
:0413D600F548F54998
:0813DA007402254AF54AE435CE
:0513E2004BF54BC3E5D3
:0A13E7004A9441E54B940040048F46
:0313F1004A8B4BD9
:0513F4001CBCFF011DFF
:0A13F900EC4D70917401554EF54A59
:07140300754B00054EE4B536
:04140A004E02054F3A
:03140E0002136F57
:051411007A01020D1735
:0E30EF0000000000000000000080F8FFFFE37A
:0E30FD00FFFFCFFFFF1F3C00C0F30000EF01FC
:0E310B00001E1C0000730000EC0000180C00F9
:0E31190000320000680000100C0000320000C0
:0E3127006800001004000012000028000010D4
:0E31350084FF0F12FE3F28FC7F1084FF07125C
:0E314300FE1F28FC3F1084FF0113FE072CFC2A
:0E3151000F18A4FFC093FE032FFD071EA43F1E
:0E315F00E093FE802FFD011FA41FF8937EE079
:0E316D002FFDC01FA407FC931EF02F3DE01F96
:0E317B00A403FE930EF82F1DF01FA480FF93F7
:0E31890002FE2F05FC1FA4C0FF9302FF2F05BE
:0E319700FE1FA4C0FF9302FF2F05FE1FA40021
:0E31A5000092020028050010A4000092020013
:0E31B30028050010A40100920600280D00104F
:0E31C100A40300920E00281D0010A4FFFF932F
:0E31CF00FEFF2FFDFF1FA407F8931EE02F3D0B
:0E31DD00C01FA401F09306C02F0D801FA40197
:0E31EB00E09306802F0D001FA400C093020089
:0E31F9002F05001EA4E0C19382072F050F1EB4
:0E320700A4F0C393C20F2F851F1EA4F0C39323
:0E321500C20F2F851F1EA4F0C393C20F2F857A
:0E3223001F1EA4F0C393C20F2F851F1EA4F020
:0E323100C393C20F2F851F1EA4F0C393C20FBC
:0E323F002F851F1EA4F0C393C20F2F851F1EE4
:0E324D00A4F0C393C20F2F851F1EA4F0C393DD
:0E325B00C20F2F851F1EA4E0C19382072F050E
:0E3269000F1EA400C09302002F05001EA4013A
:0E327700E09306802F0D001FA401F09306C007
:0E3285002F0D801FA407F8931EE02F3DC01FE1
:0E329300A4FFFF93FEFF2FFDFF1FA407C093B3
:0E32A1001E002F3D001EA401C09306002F0D3D
:0E32AF00001EA401C09306002F0D001EA400F7
:0E32BD00C09302002F05001EA4E0FF9382FFC5
:0E32CB002F05FF1FA4F0FF93C2FF2F85FF1FEA
:0E32D900A4F0FF93C2FF2F85FF1FA4F0FF9308
:0E32E700C2FF2F85FF1FA4F0FF93C2FF2F85AB
:0E32F500FF1FA4F0FF93C2FF2F85FF1FA4F060
:0E330300FF93C2FF2F85FF1FA4F0FF93C2FFB0
:0E3311002F85FF1FA4F0FF93C2FF2F85FF1F23
:0E331F00A4F0FF93C2FF2F85FF1FA4F0FF93C1
:0E332D00C2FF2F85FF1FA4F8FF93E2FF2FC5FC
:0E333B00FF1FA4FFFF93FEFF2FFDFF1FA40046
:0E334900C09302002F05001EA400C0930200D6
:0E3357002F05001EA400C09302002F05001ECB
:0E336500A400C09302002F05001EA4FFFF93DA
:0E337300FEFF2FFDFF1FA400F89302E02F05C0
:0E338100C01FA400F09302C02F05801FA400FF
:0E338F00E09302802F05001FA400C0930200EF
:0E339D002F05001EA41FC0937E002FFD001EF2
:0E33AB00A41FC2937E082FFD101EA41FC29304
:0E33B9007E082FFD101EA41FC2937E082FFD5C
:0E33C700101EA41FC2937E082FFD101EA41F0F
:0E33D500C2937E082FFD101EA41FC2937E0817
:0E33E3002FFD101EA41FC2937E082FFD101E8A
:0E33F100A41FC2937E082FFD101EA41FC293BE
:0E33FF007E082FFD101EA41FC2937E082FFD16
:0E340D00101EA41FC3937E0C2FFD181EA4FFDB
:0E341B00FF93FEFF2FFDFF1FA407F8931EE096
:0E3429002F3DC01FA401F09306C02F0D801F81
:0E343700A401E09306802F0D001FA400C09397
:0E34450002002F05001EA410C29342082F851E
:0E345300101EA410C29342082F85101EA41054
:0E346100C29342082F85101EA410C293420889
:0E346F002F85101EA410C29342082F85101E38
:0E347D00A410C29342082F85101EA410C29303
:0E348B0042082F85101EA410C29342082F8500
:0E349900101EA410C29342082F85101EA4100E
:0E34A700C29342082F85101EA410C293420843
:0E34B5002F85101E8CF8E733E29F6FC43F1F77
:0E34C300F8FFFFE3FFFFCFFFFF1F0100000037
:0634D100000000000000F5
:0E34D700FFFFFFFFFFFFFFFFFFFFFFFFFFFFF5
:0E34E500FFFFFFFFFFFFFFFFFFFFFFFFFFFFE7
:0E34F300FFFFFFFFFF3F0860F0FFFFFFFFFF3E
:0E350100FF3F0860F0FFFFFFFFFFFF3F086085
:0E350F00F0FFFFFFFFFFFF3F0860F0FFFFFF30
:0E351D00FFFFFF3F0860F0FFFFFFFFFFFF3FD3
:0E352B000860F0FFFFFFFFFFFF3F0860F0FFAA
:0E353900FFFFFFFFFF3F0860F0FFFFFFFFFFF7
:0E354700FF3F0860F0FFFFFFFFFFFF3F08603F
:0E355500F0FFFFFFFFFFFF3F0860F0FFFFFFEA
:0E356300FFFFFF3F0860F0FFFFFFFFFFFF3F8D
:0E3571000860F0FFFFFFFFFFFF1F0860F0FF84
:0E357F00FFFFFFFFFF1F0860F0FFFFFFFFFFD1
:0E358D00FF1F0860F0FFFFFFFFFFFF1F086039
:0E359B00F0FFFFFFFFFFFF1F0C60F0FFFFFFC0
:0E35A900FFFFFF1F0C60E0FFFFFFFFFFFF1F93
:0E35B7000C60E0FFFFFFFFFFFF1F0C60E0FF56
:0E35C500FFFFFFFFFF1F0C60E0FFFFFFFFFF97
:0E35D300FF0F0C60E0FFFFFFFFFFFF0F0C601B
:0E35E100E0FFFFFFFFFFFF0F0C60E0FFFFFFAA
:0E35EF00FFFFFF0F0C60C0FFFFFFFFFFFF0F8D
:0E35FD000C60C0FFFFFFFFFFFF070CE0C0FFE8
:0E360B00FFFFFFFFFF070CE0C0FFFFFFFFFF08
:0E361900FF070CE080FFFFFFFFFFFF030CE048
:0E36270080FFFFFFFFFFFF030EE080FFFFFFAD
:0E363500FFFFFF030EE000FFFFFFFFFFFF019E
:0E3643000EE000FFFFFFFFFFFF010EE001FEA3
:0E365100FFFFFFFFFF000EE001FEFFFFFFFF87
:0E365F00FF000FE001FCFFFFFFFF7F000FE008
:0E366D0001FCFFFFFFFF3F000FE003F8FFFF2F
:0E367B00FFFF3F800FE003F0FFFFFFFF1F8007
:0E3689000FE007E0FFFFFFFF0FC00FE007C0DC
:0E369700FFFFFFFF07C00FE00F80FFFFFFFFE8
:0E36A50003E00FE00F00FFFFFFFF01E00FE06A
:0E36B3001F00FEFFFFFF00F00FE01F00FCFFF6
:0E36C100FF3F00F80FE03F00F8FFFF1F00F88A
:0E36CF000FE07F00E0FFFF0700FC0FE0FF00B0
:0E36DD0080FFFF0100FE0FE0FF0100FE1F0056
:0E36EB0000FF0FE0FF0300F0070080FF0FE07C
:0E36F900FF0700C00700E0FF0FE0FF0F00C05A
:0E3707000700F0FF0FE0FF1F00C00700F8FFF3
:0E3715000FE0FF7F00C00700FEFF0FE0FFFF88
:0E37230000C00780FFFF0FE0FFFF03C007E0BC
:0E373100FFFF0FE0FFFF0FC007F8FFFF0FE0E4
:0E373F00FFFF3FC007FFFFFF0FE0FFFFFFC1CE
:0E374D00FFFFFFFFFFFFFFFFFFFFFFFFFFFF7C
:0E375B00FFFFFFFFFFFFFFFFFFFFFFFFFFFF6E
:0E376900FFFFFFFFFFFFFFFFFFFFFFFFFFFF60
:0E377700FFFFFFFFFFFFFFFFFFFFFFFFFFFF52
:0E378500FFFFFFFFFFC30F00F8E0FF00FCC3D3
:0E379300FF810700F8E07F00F0C3FF01070090
:0E37A10078C07F00E0C3FF010F0078C07F00FA
:0E37AF00C0C3FF00FFC17FC07FF8C1C3FF0091
:0E37BD00FFE13F807FF8C3C3FF00FEE13F80C5
:0E37CB007FF8C3C37F00FEE13F807FF8C3C3D9
:0E37D9007F10FEE11F047FF8C3C37F18FCE1E0
:0E37E7001F0E7FF8C3C37F38FCE11F0E7FF872
:0E37F500C1C33F38FCE11F0E7FF8C0C33F3C4C
:0E380300FCE10F0E7E78C0C33F3CF8E10F1FC2
:0E3811007E18E0C31F7CF8E10F1F7E08F0C395
:0E381F001F7CF8E1071F7E08FCC31F00F0E1CC
:0E382D0007007C08FCC31F00F0E107007C18B8
:0E383B00FCC30F00F0E107007C18FCC30F0077
:0E384900F0E103007838F8C30FFFE0E1833FA1
:0E3857007878F0C30FFFE1E1C37F7878F0C30B
:0E38650007FFE1E1C37F78F8E0C387FFC1E110
:0E387300C17F70F8C1C387FFC1E1E1FF70F8AB
:0E388100C1C383FFC3E1E1FF70F883C3C3FF3F
:0E388F00C3E1E1FF70F887C3FFFFFFFFFFFFFB
:0E389D00FFFFFFFFFFFFFFFFFFFFFFFFFFFF2B
:0E38AB00FFFFFFFFFFFFFFFFFFFFFFFFFFFF1D
:0638B900FFFFFFFFFFFF0F
:0E38BF00FFFFFFFFFFFFFFFFFFFFFFFFFFFF09
:0E38CD00FFFFFFFFFFFFFFFFFFFFFFFFFF3FBB
:0E38DB00FCF0FFFFFFFFFFFFFFDF7BEFFFFFB3
:0E38E900FFFFFFFFFFBFB5F6FFFFFFFFFFFF72
:0E38F700FF7FB6F9FFFFFFFFFFFFFFFFB6FDEB
:0E390500FFF8FF81FF1FFFFF86FD3FF77F7E6B
:0E391300FEEFFCFFB4FCDFEFBFFFFDF7FB7F14
:0E39210079FAEFC0DFC3FB03F7BFFFF7778033
:0E392F009F00F901EEBFFFF7979F1F00F8F908
:0E393D00E97FFFFBC3D51F7EF8ABC33F00F050
:0E394B00CDD5AFDBF5ABB3DF00EC8DBF6FDB8E
:0E395900F6FDB1DF00ECDDBE6FBDF67DBBDF1D
:0E39670001EE73800F3CF001CE3F03F3C7C0AA
:0E3975009F00F903E37FFFFB87EF1FC3F8F706
:0E398300E17F02F91BE05F3CFA07D8BFFCF4BD
:0E399100BD8B2F00F4D1BDDF78ECDD57CF7E6B
:0E399F00F3EABBDF79EEDD47EFBDF7E2BBDFF9
:0E39AD0079EEBD4BEF00F7D2BD1F00E07B8C22
:0E39BB00CF42F331DE3F00F003C00FC3F00334
:0E39C900C03F00F003E01F00F807C07F00F8C9
:0E39D70003E43F00FC27C07F00F807F23F1812
:0E39E500FC4FE0FF30FC07F03F00FC0FE0FF5E
:0E39F30000FCFBEEBFE7FD77DF7FCFFBFBDDC7
:0E3A0100DFE7FBBBDFBFCFF703C01F00F803FA
:0E3A0F00C03F00F0FFFFFFFFFFFFFFFFFFFFC4
:0E3A1D00FFFFFFFFFFFFFFFFFFFFFFFFFFFFA9
:0E3A2B00FFFFFFFFFFFFF8FFF1FFFFFFE3FFCC
:0E3A3900C7FFFBFFF6FF8FFFDBFFB7FFFB7F32
:0E3A4700F7FFB7FFBBFF77FFFDBFFBFFBBFF25
:0E3A550077FFEFFEFE1FFDFFDDFF2FFE5FFC83
:0E3A6300FC4FF8FFE8FF87FC0FF9FB17F77F19
:0E3A7100C2FF3BFA77E4F703EE9FB8FF1DF0AB
:0E3A7F003BE0EE01DC1F70FF0EE01DC0E9F31E
:0E3A8D00D30FE0FEF2F3E5E7C353879F9F7E61
:0E3A9B00B8FA70E5B353679F3ABCB97A73E589
:0E3AA900B1FB639F3ABBF177E3EFBBFB76DF27
:0E3AB7001FBBDB77B7EFCE039CDFB77B0EF0B3
:0E3AC5001CE0E707CF1FE0FC3CF879F0E1EFD2
:0E3AD300833F78FEF0FDE1FBD80F507F1F7E91
:0E3AE10003FC04F8BDDFEE7E80BC7771EFE2DF
:0E3AEF00BB6FDF1EDDBBFB6AF785BB09DF8600
:0E3AFD00BEBBFB68F791BD95CE26BEBB7769B8
:0E3B0B00EF92DE8D4127DD7B8FF11CE3C00DB4
:0E3B1900801FE37C00F801F0C00D803F007EAD
:0E3B270000FC01F8C00D807F007E80FC03FCD6
:0E3B3500E0D901FF00FF40FE07FCE0E361FF66
:0E3B430080FF00FE1BFEDFFF79FF617FDFFDCC
:0E3B5100FBFEDFFFBDFF7D7FBFFBF7FDC0FF6A
:0E3B5F00C1FFBE7F00F80FFCFFFFFFFFC0FF9D
:0E3B6D00FFFFFFFFFFFFFFFFFFFFFFFFFFFF58
:0E3B7B00FFFFFFFFFFFFFFFFFFFFFF1FFEFF2B
:0E3B8900FFFF1FFE3FFCFCEFF9FFF0FFE7FD22
:0E3B9700CFFBFBF7F77FCFFFFBFBF7E7F70352
:0E3BA500EE9FBFFF1DF03BE0EE01DC1F70FF46
:0E3BB3000EE01DC0E9F3D30FE0FEF2F3E5E7EC
:0E3BC100C343879F9F7EB8FA70E1B343671F2E
:0E3BCF003ABCB97A73E1B1FB631F3ABBF177E0
:0E3BDD00E3EFBBFB76DF1FBBDB77B7EFCE035A
:0E3BEB009CDFB77B0EF01CE0E707CF1FE0FC6D
:0E3BF9003CF879F0E1EF833F78FEF0FDE1FB50
:0E3C0700D81F507F1F7E03FC04F8BDDFEE7E49
:0E3C150080BC7771EFE2BB6FDF1EDDBBFB6A88
:0E3C2300F785BB09DF86BEBBFB68F791BD9538
:0E3C3100CE26BEBB7769EF92DE8D4127DD7B8C
:0E3C3F008FF11CE3C00D801FE37C00F801F044
:0E3C4D00C00D803F007E00FC01F8C00D807F9E
:0E3C5B00007E80FC03FCE0D901FF00FF40FE6C
:0E3C690007FCE0E361FF80FF00FE1BFEDFFFB3
:0E3C770079FF617FDFFDFBFEDFFFBDFF7D7F7C
:0E3C8500BFFBF7FDC0FFC1FFBE7F00F80FFCC4
:0E3C9300FFFFFFFFC0FFFFFFFFFFFFFFFFFF70
:063CA100FFFFFFFFFFFF23
:0E3CA700BFFFBFFFBF0300FC7FFFBFFFBFFFDB
:0E3CB5003F0000FC7FFFBFFFBFFF0F2A00F89B
:0E3CC3007FFFBFFFBF7F40D144E07FFFBFFF08
:0E3CD100BF1F242503C27FFFBFFFBF8F949447
:0E3CDF008C807FFFBFFFBF83524A22107FFF01
:0E3CED00BFFFBF21495149007EFFBFFFBF004E
:0E3CFB0000004A027CFFBFFF3FA8FF2F80267B
:0E3D09007CFFBFFF0FFAFFFF050879FFBFFF29
:0E3D17004FFDFFFF371478FFBFFFA7FEFFFF31
:0E3D25002F2078FFBFFF51FDFFFFFF2078FF2A
:0E3D3300BFFFE4FAFFFF7F4970FFBF7F5A0118
:0E3D410000F0FF4270FFBF7E24FC9FC2FF0413
:0E3D4F0074FF3F7C89FF3F095F8370FE3F7960
:0E3D5D00E2FF7F32FC0A30FCBF73F2FFBFA40E
:0E3D6B00700591FCBFE7F8FF9F4ACD0A50FD9E
:0E3D7900DFCFFCFF5F498E9AF0FCDF9FFEFF5C
:0E3D87002F053805F0F8DF5EFFC3AF24701281
:0E3D9500F8F9DF9C7F1C97A0C40CDFF9DFDC7F
:0E3DA3007F7E4A49CC028FF9DFD93FFF241200
:0E3DB100E9A1C7F9DFE89FFFA824F38D91FD7B
:0E3DBF00DFE29E7F45A8F7C3A8FCDF62DFBFEE
:0E3DCD000A91EFCBD1FCDF64DF0FE00A9E67A6
:0E3DDB00D4FCDF25FF8B7FE43806DAFCBF093D
:0E3DE900FF233FF07B2779FEBF53FFFAFEFF5A
:0E3DF700332765FEBF259FF8FFFF378736FF95
:0E3E05003F4B0FFCFEEFB74F3EFF3F8B867C1E
:0E3E1300FECFB78F1FFFBF36867EFECFB70FE4
:0E3E21000FFFBF4D147EFFDFB7CF57FFBFBBB3
:0E3E2F00887EFECFB7CF6BFFBFF7107CFECFB3
:0E3E3D00B9CF73FFBFCF2A7BFECFBFDF7AFF66
:0E3E4B00BFBF92FFFEEFBF8F7CFFBF3F0EFF99
:0E3E5900FFFFBF4F7EFFBFBF1EFFFFFFBF8FEB
:0E3E67007FFFBF3F0EAFFF7F9DEF7FFFBF7F4E
:0E3E75000EAFFF7F9DEF7FFFBF3F1CFCFFFFE6
:0E3E8300DFE77FFFBFBF0DFE00C08FE77FFFB0
:0E3E9100BFBF6BFCFDEFC7F77FFFBFBFC3F8DD
:0E3E9F0011E187F37FFFBFBFE3E0A3F283F1E1
:0E3EAD007FFFBFBFF3C00FFC81F97FFFBF3F57
:0E3EBB006740FF7F81F87FFFBF7F7700FC0F1D
:0E3EC90008FC7FFFBF7F3608000080FC7FFFF3
:0E3ED700BF7F3680220112FC7FFFBF3F3C0000
:0E3EE500584904FC7FFFBFBFCB24F40518FD35
:0E3EF3007FFFBFBFD7844040A2F87FFFBFBF54
:0E3F0100F309180140FA7FFFBF1FF80941487D
:0E3F0F0084F47FFFBFDFB9819081A0F27FFFB5
:0E3F1D00BFDF8305102000E17FFFBFBFC34060
:0E3F2B00128309ED7FFFBF7F1880400001E286
:0E3F39007FFFBF7F7C82B05060C07FFFBF7FE4
:0E3F47000010022864DF7FFFBFFF1200080495
:0E3F5500B09F7FFFBFFF0424E001B2BB7FFFDF
:0E3F6300BFFF81E6E7F9B1B17FFFBFFFFF8628
:0E3F7100E7F9B0BD7FFFBFFFFF020000B0DD2B
:0E3F7F007FFFBFFFFF02020464D97FFFBFFF78
:0E3F8D00FF40022860E07FFFBFFFFF9090C062
:0E3F9B0040FD7FFFBFFFFF80000152FD7FFF52
:0E3FA900BFFFFF08240440FD7FFFBFFFFF4065
:0E3FB700004842FD7FFFBFFFFF02920064FD45
:0E3FC5007FFFBFFFFF0E000068FD7FFFBFFF04
:0E3FD300FFDE57F733FD03FF3FC0FF9E87C0A0
:0E3FE100E101F8F8DF3F001E0FD0E8FFFFFF00
:0E3FEF00EFFF1F0089A2E0FFFFFFFFFF9F37DB
:0E3FFD002008CCFFFFFFFFFF9FE75FF4D7FF18
:0E400B00FFFFFFFF3F202F481200C0F8FFFF0D
:0E401900FF561291C4FFFFFFFFFFFF8284508D
:0E40270081FFFFFFFFFF7F00000210FFFFFF81
:0E4035000F000014A006A4FFFFFFFFFF3FAA2C
:0E40430005804AFCFFFFFFFF1F910A4099F223
:0E405100FFFFFFFF4F4A049022F3FFFFFFFF27
:0E405F008FA50AC055F3FFFFFFFFAFFF85805E
:0E406D00FFF7FFFFFFFFC77F4105FEE1FFFFEA
:0E407B00FFFF039EE08FFCC2FFFFFFFF012945
:06408900F05F4288FFFF1A
:0E408F0055555555555555555555AAAAAAAA29
:0E409D00AAAAAAAAAAAA555555555555555571
:0E40AB005555AAAAAAAAAAAAAAAAAAAA55550F
:0E40B9005555555555555555AAAAAAAAAAAA55
:0E40C700AAAAAAAA55555555555555555555F1
:0E40D500AAAAAAAAAAAAAAAAAAAA55555555E5
:0E40E300555555555555AAAAAAAAAAAAAAAA81
:0E40F100AAAA55555555555555555555AAAAC7
:0E40FF00AAAAAAAAAAAAAAAA55555555555565
:0E410D0055555555AAAAAAAAAAAAAAAAAAAAAC
:0E411B0055555555555555555555AAAAAAAA9C
:0E412900AAAAAAAAAAAA5555555555555555E4
:0E4137005555AAAAAAAAAAAAAAAAAAAA555582
:0E4145005555555555555555AAAAAAAAAAAAC8
:0E415300AAAAAAAA5555555555555555555564
:0E416100AAAAAAAAAAAAAAAAAAAA5555555558
:0E416F00555555555555AAAAAAAAAAAAAAAAF4
:0E417D00AAAA55555555555555555555AAAA3A
:0E418B00AAAAAAAAAAAAAAAA555555555555D8
:0E41990055555555AAAAAAAAAAAAAAAAAAAA20
:0E41A70055555555555555555555AAAAAAAA10
:0E41B500AAAAAAAAAAAA555555555555555558
:0E41C3005555AAAAAAAAAAAAAAAAAAAA5555F6
:0E41D1005555555555555555AAAAAAAAAAAA3C
:0E41DF00AAAAAAAA55555555555555555555D8
:0E41ED00AAAAAAAAAAAAAAAAAAAA55555555CC
:0E41FB00000050555555AAAAAAAAFFFFAFAA68
:0E420900AAAA555555D5FFFF5F555555AAAACF
:0E421700AACA01009CAAAAAA555555D5FEFFB9
:0E4225005B555555AAAAAACAFEFF9BAAAAAAD3
:0E423300555555D5FEFF5B555555AAAAAACA8A
:0E424100DEDD9BAAAAAA555555D5DEDD5B55DC
:0E424F005555AAAAAACAFEFD9BAAAAAA5555B1
:0E425D0055D5FEFD5B555555AAAAAACAFEFC12
:0E426B009BAAAAAA555555D5FEFF5B55555581
:0E427900AAAAAACABEF79BAAAAAA555555D54D
:0E4287007EF85B555555AAAAAACAFEFF9BAA4F
:0E429500AAAA555555D5FEFF5B555555AAAA48
:0E42A300AACA01009CAAAAAA555555D5FFFF2C
:0E42B1005F555555AAAAAACAFFFF9FAAAAAA3E
:0E42BF00555555D5FFFF5F555555AAAAAACAF9
:0E42CD00FFFF9FAAAAAA555555D5FC0F5C55B8
:0E42DB005555AAAAAACAFFFF9FAAAAAA55551E
:0E42E90055D5FFFF5F555555AAAAAACAFFFF7B
:0E42F7009FAAAAAA555555D5FFFF5F555555EC
:0E430500AAAAAA2A0000A0AAAAAA5555559550
:0E431300FFFF4F555555AAAAAAAAFFFFAFAA51
:0E432100AAAA55555595FFFF4F555555AAAA06
:0E432F00AA2A0000A0AAAAAA55555555555510
:0E433D0055555555AAAAAAAAAAAAAAAAAAAA7A
:0E434B0055555555555555555555AAAAAAAA6A
:0E435900AAAAAAAAAAAA5555555555555555B2
:0E4367005555AAAAAAAAAAAAAAAAAAAA555550
:0E4375005555555555555555AAAAAAAAAAAA96
:0E438300AAAAAAAA5555555555555555555532
:0E439100AAAAAAAAAAAAAAAAAAAA5555555526
:0E439F00555555555555AAAAAAAAAAAAAAAAC2
:0E43AD00AAAA55555555555555555555AAAA08
:0E43BB00AAAAAAAAAAAAAAAA555555555555A6
:0E43C90055555555AAAAAAAAAAAAAAAAAAAAEE
:0E43D70055555555555555555555AAAAAAAADE
:0E43E500AAAAAAAAAAAA555555555555555526
:0E43F3005555AAAAAAAAAAAAAAAAAAAA5555C4
:0E4401005555555555555555AAAAAAAAAAAA09
:0E440F00AAAAAAAA55555555555555555555A5
:0E441D00AAAAAAAAAAAAAAAAAAAA5555555599
:0E442B00555555555555AAAAAAAAAAAAAAAA35
:0E443900AAAA55555555555555555555AAAA7B
:0E444700AAAAAAAAAAAAAAAA55555555555519
:0E44550055555555AAAAAAAAAAAAAAAAAAAA61
:0E44630055555555555555555555AAAAAAAA51
:06447100AAAAAAAAAAAA49
:0E447700000000000000000000000000000037
:0E448500000000000000000000000000000029
:0E44930000F8FFFFFF00000000000000000026
:0E44A100000000000000000000000000FFFF0F
:0E44AF00FFFF070000000000000000000000FA
:0E44BD000000000000000000C0FFFFFFFF0F26
:0E44CB000000000000000000000000000000E3
:0E44D9000000000000E0FFFFFFFF1F000000DA
:0E44E7000000000000000000000000000000C7
:0E44F5000000F0FFFFFFFF1F000000000000AE
:0E45030000000000000000000000000000F0BA
:0E451100FFFFFFFF1F00000000000000000081
:0E451F0000000000000000000000F8FFFFFF99
:0E452D00FF1F00000000000000000000000062
:0E453B00000000000000000000000000000072
:0E454900000000000000000000000000000064
:0E4557000000007C0000003EF021FC0000008F
:0E456500000000000000000000000000000048
:0E457300FF098081FFFC67FF030000000000CD
:0E4581000000000000000000000080810DC05E
:0E458F00C3C006360303000000000000000059
:0E459D0000000000000000C0800D60C340065A
:0E45AB00B2010300000000000000000000004C
:0E45B90000000000C0000C30C23FFEB1013017
:0E45C70073468CC8119903000000000000002C
:0E45D50000C0000618867FFCB301B87B6FDEC5
:0E45E3006CDFDD030000000000000000C0805F
:0E45F10006F86760039B80314B499B689B591D
:0E45FF00020000000000000000C0C006FC67C3
:0E460D006003DB8011ED4D9B2C9949020000EB
:0E461B00000000000000C07FFE07EC3FFF998A
:0E462900FF10BD47CFEC89C801000000000063
:0E463700000000803FFE07CC1FFE087F001031
:0E46450002064000800000000000000000009F
:0E465300000000000000000000000000000059
:0E46610000000000000000000000000000FF4C
:0E466F007F00000000000000000000000000BE
:0E467D0000000000000000000000FF7FFCE7CE
:0E468B007F0E70FF19D87F7B70FF03000000C8
:0E46990000000000000000FF7FFEF77F1E788B
:0E46A700030D180E7BB083030000000000001E
:0E46B50000000000FF7F0636601F3C010D1C58
:0E46C30006FBB00103001E7860FC030000003F
:0E46D10000FF3F0730601B3E810D0C86DDB1FF
:0E46DF000100003F7E70FC0100000080FF3FE4
:0E46ED000330603BB7FF0C0C869DDBF901C06B
:0E46FB0031E33C040000000080FF3F03366006
:0E470900B3B301040C830DDBF00140B0C134EA
:0E4717007E0000000080FF3F033670F3B90102
:0E472500060C830DDF80010098E130FE0000DD
:0E473300000080FF3FFFF3BFE39800FE078306
:0E4741000DDEFF0000DC6018C700000000C0A5
:0E474F00FF3FFEF19F619800FC0381048C7F08
:0E475D000000C76018C100000000C0FF7F0010
:0E476B00000000000000000000000000C0C1BF
:0E4779003018C000000000C0FFFFFFFFFF016E
:0E47870000000000000000000060C0300C6068
:0E47950000000000C0FFFFFFFFFF010000005A
:0E47A30000000000000030C0188C3000000044
:0E47B10000C0FFFFFFFFFF000000000000003F
:0E47BF00000000F0C70F9F1F0000000080FFE9
:0E47CD00FFFFFFFF00000000000000000000E2
:0E47DB00F887871F0F0000000080FFFFFFFF20
:0E47E9007F0000000000000000000000000043
:0E47F70000000000000000FFFFFFFF3F000079
:0E4805000000000000000000000000000000A5
:0E48130000000000FEFFFFFF0F00000000008D
:0E482100000000000000000000000000000089
:0E482F0000F8FFFFFF03000000000000000083
:0E483D0000000000000000000000000000006D
:0E484B0000000000000000000000000000005F
:0648590000000000000059
:0E485F00546865204D696E6974656C2044656F
:07486D006D6F2021202000E7
:0E4874000A0A0A0A3C3C4C65204D696E6974C4
:0E488200656C2065737420756E207465726D10
:0E489000696E616C0A696E666F726D617469A3
:0E489E00717565207061737369662C0A63275B
:0E48AC006573742DE02D6469726520717527A7
:0E48BA00696C207327616769740A756E6971F5
:0E48C80075656D656E74206427756E20636CD7
:0E48D6006176696572206574206427756E2016
:0E48E400E96372616E2C0A73616E732063616A
:0E48F2007061636974E9206465207472616905
:0E49000074656D656E740A6E6920646973706B
:0E490E006F73697469662064652073746F634B
:0E491C006B6167652E3E3E0A0A2041682062EC
:0E492A006F6E203F20766F796F6E732063658D
:064938006C612E2E2E0022
:0E493E00F0E2E301F020E3002CE2E3000000D1
:0E494C0000002C20E3012CE2E300F020E30049
:0E495A0000000000F0E21F01F0E2E3002CE29A
:0E4968001F00000000002CE2E3012CE21F0003
:0E497600F0E2E30100000000F0201F01F0E27B
:0E4984001F002C201F00000000002CE21F016D
:0E4992002C201F00F0E21F0100000000F020AA
:0E49A000E301F0201F002C20E30100000000C6
:0E49AE002C201F012C20E300F0201F01000030
:0249BC000000F9
:0449BE00083E4980E6
:0E49C200EF104201DE2D3900D2213900000035
:0E49D0000000EF104201D2213900CD10390055
:0E49DE0000000000EF104201CD103900D200A1
:0E49EC00390000000000EF104201D200390037
:0E49FA00DEF3390000000000EF104201DEF392
:0E4A08003900EFEF390000000000EF1042010E
:0E4A1600EFEF390000F3390000000000EF1050
:0E4A2400420100F339000C00390000000000D0
:0E4A3200EF1042010C00390011103900000095
:0E4A40000000EF104201111039000C21390066
:0E4A4E0000000000EF1042010C213900002D85
:0E4A5C00390000000000EF104201002D39006B
:0E4A6A00EF32390100000000EF323900D24374
:0E4A78002100DE2D390100000000DE2D390185
:0E4A8600D2432100BD2D210000000000DE2DD6
:0E4A94003900BD2D2100D221390100000000A3
:0E4AA200D2213901BD2D2100B51021000000E8
:0E4AB0000000D2213900B5102100CD103901CF
:0E4ABE0000000000CD103901B5102100BDF33D
:0E4ACC00210000000000CD103900BDF32100D4
:0E4ADA00D200390100000000D2003901BDF306
:0E4AE8002100D2DE210000000000D2003900C3
:0E4AF600D2DE2100DEF3390100000000DEF305
:0E4B04003901D2DE2100EFD6210000000000B2
:0E4B1200DEF33900EFD62100EFEF390100008D
:0E4B20000000EFEF3901EFD621000CDE21007E
:0E4B2E0000000000EFEF39000CDE210000F364
:0E4B3C0039010000000000F339010CDE2100F9
:0E4B4A0021F321000000000000F3390021F3E8
:0E4B580021000C003901000000000C003901A2
:0E4B660021F3210029102100000000000C00A6
:0E4B7400390029102100111039010000000045
:0E4B82001110390129102100212D2100000001
:0E4B9000000011103900212D21000C213901E7
:0E4B9E00000000000C213901212D21000C43E4
:0E4BAC002100000000000C2139000C43210004
:0E4BBA00002D390100000000002D39010C43D0
:0E4BC8002100EF4B210000000000002D3900FD
:0E4BD600EF4B2101EF32390100000000EF4BE0
:0E4BE4002100CD4BFF00D24321010000000054
:0E4BF200D2432101CD4BFF00B532FF00000081
:0E4C00000000D2432100B532FF00BD2D21017E
:0E4C0E0000000000BD2D2101B532FF00AC10EA
:0E4C1C00FF0000000000BD2D2100AC10FF00C5
:0E4C2A00B510210100000000B5102101AC10F2
:0E4C3800FF00B5EFFF0000000000B5102100E6
:0E4C4600B5EFFF00BDF3210100000000BDF33B
:0E4C54002101B5EFFF00CDD6FF0000000000EB
:0E4C6200BDF32100CDD6FF00D2DE21010000FF
:0E4C70000000D2DE2101CDD6FF00EFCDFF0007
:0E4C7E0000000000D2DE2100EFCDFF00EFD6D7
:0E4C8C00210100000000EFD62101EFCDFF0056
:0E4C9A0011D6FF0000000000EFD6210011D659
:0E4CA800FF000CDE2101000000000CDE2101E7
:0E4CB60011D6FF0029EFFF00000000000CDE09
:0E4CC400210029EFFF0021F321010000000074
:0E4CD20021F3210129EFFF003210FF00000046
:0E4CE000000021F321003210FF0029102101F5
:0E4CEE0000000000291021013210FF002932C1
:0E4CFC00FF0000000000291021002932FF00F7
:0E4D0A00212D210100000000212D2101293260
:0E4D1800FF00114BFF0000000000212D2100C4
:0E4D2600114BFF000C432101000000000C4364
:0E4D34002101114BFF00EF54FF0000000000B2
:0E4D42000C432100EF54FF01EF4B2101000054
:0E4D50000000EF54FF00D243DD00CD4BFF0109
:0E4D5E0000000000CD4BFF01D243DD00BD2D53
:0E4D6C00DD0000000000CD4BFF00BD2DDD007E
:0E4D7A00B532FF0100000000B532FF01BD2D73
:0E4D8800DD00B510DD0000000000B532FF00B8
:0E4D9600B510DD00AC10FF0100000000AC10F5
:0E4DA400FF01B510DD00BDF3DD0000000000D2
:0E4DB200AC10FF00BDF3DD00B5EFFF01000007
:0E4DC0000000B5EFFF01BDF3DD00D2DEDD0027
:0E4DCE0000000000B5EFFF00D2DEDD00CDD604
:0E4DDC00FF0100000000CDD6FF01D2DEDD0099
:0E4DEA00EFD6DD0000000000CDD6FF00EFD6B2
:0E4DF800DD00EFCDFF0100000000EFCDFF0158
:0E4E0600EFD6DD000CDEDD0000000000EFCD79
:0E4E1400FF000CDEDD0011D6FF0100000000E3
:0E4E220011D6FF010CDEDD0021F3DD000000E3
:0E4E3000000011D6FF0021F3DD0029EFFF0185
:0E4E3E000000000029EFFF0121F3DD00291024
:0E4E4C00DD000000000029EFFF002910DD004E
:0E4E5A003210FF01000000003210FF0129108D
:0E4E6800DD00212DDD00000000003210FF00F3
:0E4E7600212DDD002932FF010000000029324D
:0E4E8400FF01212DDD000C43DD0000000000C9
:0E4E92002932FF000C43DD00114BFF01000030
:0E4EA0000000114BFF010C43DD00EF4BDD0065
:0E4EAE0000000000114BFF00EF4BDD01EF5440
:0E4EBC00FF0100000000EF4BDD00DE2DC50001
:0E4ECA00D243DD0100000000D243DD01DE2DE9
:0E4ED800C500D221C50000000000D243DD005D
:0E4EE600D221C500BD2DDD0100000000BD2D54
:0E4EF400DD01D221C500CD10C5000000000078
:0E4F0200BD2DDD00CD10C500B510DD01000095
:0E4F10000000B510DD01CD10C500D200C500B7
:0E4F1E0000000000B510DD00D200C500BDF39C
:0E4F2C00DD0100000000BDF3DD01D200C50074
:0E4F3A00DEF3C50000000000BDF3DD00DEF375
:0E4F4800C500D2DEDD0100000000D2DEDD017A
:0E4F5600DEF3C500EFEFC50000000000D2DE64
:0E4F6400DD00EFEFC500EFD6DD01000000001C
:0E4F7200EFD6DD01EFEFC50000F3C500000033
:0E4F80000000EFD6DD0000F3C5000CDEDD0101
:0E4F8E00000000000CDEDD0100F3C5000C0089
:0E4F9C00C500000000000CDEDD000C00C500AA
:0E4FAA0021F3DD010000000021F3DD010C0009
:0E4FB800C5001110C5000000000021F3DD004F
:0E4FC6001110C5002910DD01000000002910A7
:0E4FD400DD011110C5000C21C5000000000019
:0E4FE2002910DD000C21C500212DDD0100008D
:0E4FF0000000212DDD010C21C500002DC500A3
:0E4FFE0000000000212DDD00002DC5000C4339
:0E500C00DD01000000000C43DD01002DC50099
:0E501A00EF32C500000000000C43DD00EF3255
:0E502800C501EF4BDD0100000000EF10BC00E1
:0E503600DE2DC501EF32C50000000000EF10B6
:0E504400BC00D221C501DE2DC5010000000018
:0E505200EF10BC00CD10C501D221C501000039
:0E5060000000EF10BC00D200C501CD10C5014C
:0E506E0000000000EF10BC00DEF3C501D20010
:0E507C00C50100000000EF10BC00EFEFC50101
:0E508A00DEF3C50100000000EF10BC0000F3D3
:0E509800C501EFEFC50100000000EF10BC00E5
:0E50A6000C00C50100F3C50100000000EF1072
:0E50B400BC001110C5010C00C5010000000079
:0E50C200EF10BC000C21C5011110C50100004B
:0E50D0000000EF10BC00002DC5010C21C50131
:0E50DE0000000000EF10BC01EF32C501002DF4
:0650EC00C50100000000F8
:0450F20073C24980BC
:0E50F6003107FA01212DFA00212D12000000D1
:0E5104000000212DFA00FB3D1200212D1201AA
:0E51120000000000212DFA01FB3DFA00FB3DDC
:0E512000120000000000FB3DFA00D52D120029
:0E512E00FB3D120100000000FB3DFA01D52DF3
:0E513C00FA00D52D120000000000D52DFA005B
:0E514A00C5071200D52D120100000000D52D62
:0E515800FA01C507FA00C507120000000000AA
:0E516600C507FA00D5E11200C50712010000CE
:0E5174000000C507FA01D5E1FA00D5E11200EE
:0E51820000000000D5E1FA00FBD11200D5E1DB
:0E519000120100000000D5E1FA01FBD1FA0087
:0E519E00FBD1120000000000FBD1FA0021E15D
:0E51AC001200FBD1120100000000FBD1FA013D
:0E51BA0021E1FA0021E112000000000021E1D5
:0E51C800FA003107120021E112010000000080
:0E51D60021E1FA013107FA0131071200000051
:0E51E4000000FB07120031071201212D1200FE
:0E51F20000000000FB071200212D1201FB3D02
:0E520000120000000000FB071200FB3D12012F
:0E520E00D52D120000000000FB071200D52D68
:0E521C001201C507120000000000FB0712007F
:0E522A00C5071201D5E1120000000000FB07CD
:0E5238001200D5E11201FBD1120000000000AF
:0E524600FB071200FBD1120121E11200000053
:0E5254000000FB07120021E1120131071200D9
:045262000000000048
:0452660017F6508067
:0E526A00F412FA01062EE400E3F6E400000060
:0E5278000000F412FA01E3F6E400F41126003F
:0E52860000000000F412FA01F4112600062EBA
:0E529400E40000000000062EE400FBE7E4004A
:0E52A200E3F6E40100000000E3F6E401FBE7A0
:0E52B000E4000C02260000000000E3F6E4001B
:0E52BE000C022600F411260100000000F4117D
:0E52CC0026010C0226001E1FE4000000000058
:0E52DA00F41126001E1FE401062EE401000060
:0E52E80000001E1FE4000C03FA01FBE7E401C6
:0E52F60000000000FBE7E4000C03FA010C02CC
:0E5304002601000000000C0226000C03FA0136
:085312001E1FE4010000000071
:04531A000B6A528048
:0E531E0003FC2201DDCAF6003AE0F6000000B2
:0E532C00000003FC22013AE0F600282DF600F6
:0E533A000000000003FC2201282DF600CC1715
:0E534800F6000000000003FC2201CC17F60066
:0E535600DDCAF60000000000DDCAF60003FC10
:0E536400F6013AE0F601000000003AE0F60023
:0E53720003FCF601282DF60100000000282D96
:0E538000F60003FCF601CC17F6010000000059
:0E538E00CC17F60003FCF601DDCAF6010000A4
:02539C0000000F
:04539E00081E538012
:0E53A2002521FB01DB21FB0100FD2F01000096
:0E53B0000000DBD8FB0125D8FB0100FD2F011A
:0E53BE000000000025D8FB0100FDC7012521DD
:0E53CC00FB0100000000DBD8FB01DB21FB0130
:0853DA0000FDC7010000000006
:0453E20004A253804E
:0E53E6000101010101010101010101010101AB
:0E53F4000100000000000000000000000000AA
:0E540200000000000101010101010101010192
:0E541000010101010102020202020202000279
:0E541E00020202020202020202020202020264
:0E542C0002020001010101010101020202025F
:0E543A0002020202020202020200020202014B
:0E544800010101010101010101010101020246
:0E545600020001010101010102020202020234
:0E546400020202020202020002020101010124
:0E54720001010001010001010101010202001F
:0E548000010101010101020202020202020307
:0E548E000303030303000201010001010101F9
:0E549C000101010101010101010102000101F4
:0E54AA000101010103030303030303030303D2
:0E54B8000303030002010101010101010101D2
:0E54C6000100000101000101020001000001CF
:0E54D4000101030303030303030303030303A4
:0E54E2000300020101010101010101010002AC
:0E54F0000200010101010200000202000101A0
:0E54FE00030303030303030000000002020087
:0E550C00020101010101010001010002020281
:0E551A00000101010200020202000101020272
:0E552800020202020200020200000200020162
:0E553600010101010101010100020202020057
:0E554400000000020202020001010202020247
:0E55520002020200000202000000020101013C
:0E55600000010101010100020202020202022A
:0E556E00020202020200010102020202020217
:0E557C00020300000202000002010101010111
:0E558A000101000002020202020202020202FD
:0E5598000202020200010303030303030303E4
:0E55A6000300000202000201000101010101E8
:0E55B4000100020202030002020202020300D2
:0E55C2000202000103030303030303030303B8
:0E55D0000000000002010101010101010100C3
:0E55DE000202020000020202000200000202AD
:0E55EC00000103030303030303020202020291
:0E55FA00000002010101010100010100020197
:0E56080001020202020202020202010100017E
:0E56160002020202020202020202020202006C
:0E562400020201000101010101000201010268
:0E563200000202000202000201010001020259
:0E564000020202020202020202020200020242
:0E564E0002010101010101010002020200003F
:0E565C00000000000002020001010202020232
:0E566A00020202030303030300000002020217
:0E56780002020202020202000202020202020A
:0E5686000202020200010101030303030303F9
:0E5694000303030303000202020000000000F3
:0E56A2000000000000000000000000000000FA
:0E56B0000000010101010303030303030303D0
:0E56BE000303030002020000010002020001CB
:0E56CC000101010100020200010002020001C2
:0E56DA000101010103030303030303010101A6
:0E56E8000100000000010100000001010101AD
:0E56F60001010100000001010000010101019D
:0E570400010101010101010101010101010189
:0E57120001010101010101010101010101017B
:0E57200001010101010101010101010101016D
:0E572E0001010101010101010101010101015F
:0E573C00010101010101010101010101010151
:0E574A00010101010101010101010101010143
:0E575800010101010101010101010101010036
:0E576600000000000000000000000000000035
:0E57740000000101010101010101010101011B
:0E578200010101020202020202020002020202
:0E5790000202020202020202020202020202EF
:0E579E000001010101010101020202020202EA
:0E57AC000202020202020200020202010101D8
:0E57BA000101010101010101010102020200D1
:0E57C8000101010101010202020202020202BD
:0E57D6000202020202000202010101010101B1
:0E57E4000001010001010101010202000101AA
:0E57F20001010101020202020202020303038E
:0E580000030303000201010001010101010187
:0E580E0001010101010101010200010101017E
:0E581C00010103030303030303030303030358
:0E582A00030002010101010101010101010160
:0E583800000001000101020001010000010159
:0E58460003030303030303030303030303002D
:0E585400020101010101010101010100020236
:0E586200000101010200010002020001030327
:0E58700003030303030202020202020002010C
:0E587E0001010101010001010100020202000E
:0E588C000101020000020202000102020202FB
:0E589A000202020200000202020002010101ED
:0E58A8000101010101010100020202020000E3
:0E58B6000000020202020001020202020202CF
:0E58C4000200020200020200020101010001C6
:0E58D2000101010101000202020202020202B3
:0E58E0000202020200010202020202020200A3
:0E58EE0002020000000002010101010101019F
:0E58FC00000100020202020202020202020287
:0E590A0002020200030303030303030300026F
:0E591800020202000201000101010101010171
:0E59260000020202030002020202020300025B
:0E593400020003030303030303030300000246
:0E594200020002010101010101010101000248
:0E595000020200000202020002000002020039
:0E595E0003030303030303020202020000001E
:0E596C0002010101010100010101000201011F
:0E597A00020202020202020202010100020207
:0E5988000202020202020202020202000202F7
:0E5996000100010101010101000201010200F6
:0E59A4000202000202000201010002020202E1
:0E59B2000202020202020202020002020201CE
:0E59C0000101010101010100020202000000CC
:0E59CE000000000002020001020202020202BA
:0E59DC0002030303030303000002020202029F
:0E59EA00020202020202000202020202020295
:0E59F800020202000101030303030303030381
:0E5A0600030303030002020000000000000082
:0E5A1400000000000000000000000000000084
:0E5A2200000101010303030303030303030355
:0E5A3000030300020200010002020001010156
:0E5A3E0001010100020200010002020001014C
:0E5A4C00010103030303030303010101010130
:0E5A5A00000000010101000000010101010136
:0E5A6800010100000001010000000101010128
:0E5A7600010101010101010101010101010114
:0E5A8400010101010101010101010101010106
:0E5A92000101010101010101010101010101F8
:0E5AA0000101010101010101010101010101EA
:0E5AAE000101010101010101010101010101DC
:0E5ABC000101010101010101010101010101CE
:0E5ACA000101010101010101010101000000C3
:0E5AD8000000000000000000000000000000C0
:0E5AE6000101010101010101010101020202A1
:0E5AF40002020202010101010002020202028E
:0E5B020002020202020202020202020200017C
:0E5B1000010101010101020202020202020271
:0E5B1E00020202020200020202010101010164
:0E5B2C0001010101010101010202020001015B
:0E5B3A00010101010202020202020202020245
:0E5B480002020200020201010101010100013E
:0E5B5600010001010101010202000101010133
:0E5B6400010102020203030303030303020212
:0E5B7200020002010100010101010101010117
:0E5B8000010101010101020001010101010109
:0E5B8E000303030303030303030303030300E2
:0E5B9C000201010101010101010101010000EE
:0E5BAA000100010102000101000001010303DE
:0E5BB8000303030303030303030303000201BB
:0E5BC6000101010101010101010002020001C3
:0E5BD4000101020001000202000103030302AE
:0E5BE20002020202020203030300020101019B
:0E5BF000010101000101010002020200010199
:0E5BFE00020000020202000102020202020284
:0E5C0C00020202020202020002010101010175
:0E5C1A0001010101010002020202000000006F
:0E5C2800020202020001020202020202020255
:0E5C360002020202020002010101000101014E
:0E5C440001010100020202020202020202023B
:0E5C5200020200010202020303030303030324
:0E5C6000020200000201010101010101000128
:0E5C6E0000020202020202020202020202020E
:0E5C7C00020003030303030303030000000000
:0E5C8A00000002010001010101010101000200
:0E5C98000202030002020202020300020200E6
:0E5CA6000303030303030000020202020200D4
:0E5CB4000201010101010101010100020202D1
:0E5CC2000000020202000200000202000303C2
:0E5CD0000302020200020202020000000201B2
:0E5CDE000101010100010101000201010202A9
:0E5CEC00020202020202020101000202020292
:0E5CFA0002020200000000000200020201008F
:0E5D080001010101010100020101020002027D
:0E5D160000020200020101000202020202026B
:0E5D240002020202020202000202020101015A
:0E5D3200010101010100020202000000000058
:0E5D400000000202000102020203030303033B
:0E5D4E0003030202020000020202020202022D
:0E5D5C0002020202000202020202020202021F
:0E5D6A00020001010303030303030303030309
:0E5D7800030303000200000000000000000012
:0E5D860000000000000000000000000000010E
:0E5D94000101030303030303030303030303DB
:0E5DA2000300020200010002020001010101E3
:0E5DB0000101000202000100020200010101D7
:0E5DBE000303030101010101010103030300BE
:0E5DCC000000010101000000010101010101C0
:0E5DDA000100000001010000000101010101B3
:0E5DE80001010101010101010101010101019F
:0E5DF600010101010101010101010101010191
:0E5E0400010101010101010101010101010182
:0E5E1200010101010101010101010101010174
:0E5E2000010101010101010101010101010166
:0E5E2E00010101010101010101010101010158
:0E5E3C0001010101010101010101010101014A
:0E5E4A0001010101010101010101010101013C
:0E5E580001010101010101010101010101012E
:0E5E6600010101010101010000000000000027
:0E5E740000000000000000000000010101011C
:0E5E82000101010101010102020202020202FD
:0E5E90000101010100020202020202020202EE
:0E5E9E000202020202020202000101010101E1
:0E5EAC000101020202020202020202020202CE
:0E5EBA000200020202010101010101010101C9
:0E5EC8000101010102020200010101010101BC
:0E5ED6000202020202020202020202020200A4
:0E5EE4000202010101010101000101000101A2
:0E5EF200010101020200010101010101020291
:0E5F0000020303030303030302020200020173
:0E5F0E00010001010101010101010101010178
:0E5F1C00010102000101010101010303030361
:0E5F2A00030303030303030303000201010149
:0E5F3800010101010101010100000100010150
:0E5F4600020001010000010103030303030335
:0E5F5400030303030303030002010101010123
:0E5F6200010101010100020200010101020023
:0E5F700001000202000103030302020202020A
:0E5F7E00020203030300020101010101010000
:0E5F8C000101010002020200010102000002F8
:0E5F9A000202000102020202020202020202E0
:0E5FA8000202020002010101010101010101DA
:0E5FB6000100020202020000000002020202CC
:0E5FC4000001020202020202020202020202B6
:0E5FD2000200020101010001010101010100B4
:0E5FE00002020202020202020202020200019A
:0E5FEE00020202030303030303030200000088
:0E5FFC00020101010101010100010002020287
:0E600A0002020202020202020202020003036C
:0E60180003030303030303000002020002015E
:0E60260000010101010101010002020203005C
:0E603400020202020203000202000303030341
:0E604200030303030002020202000201010137
:0E605000010101010101000202020000020232
:0E605E0002000200000202000303030202021D
:0E606C00020002020000000002010101010119
:0E607A00000101010002010102020202020205
:0E6088000202020101000202020202020200F4
:0E6096000202000202000202010001010101EB
:0E60A4000101000201010200020200020200DE
:0E60B2000201010002020202020202020000CC
:0E60C0000202020002020201010101010101BF
:0E60CE000100020202000000000000000202B9
:0E60DC00000102020203030303030303020296
:0E60EA00020000020202020202020202020290
:0E60F800000202020202020202020200010184
:0E610600030303030303030303030303000265
:0E61140002000000000000000000000000007B
:0E612200000000000000000000010101030366
:0E61300003030303030303030303000202003F
:0E613E00010002020001010101010100020244
:0E614C00000100020200010101010303030132
:0E615A00010101010101030300000001010128
:0E616800000000010101010101010000000121
:0E617600010000000101010101010101010110
:0E6184000101010101010101010101010101FF
:0E6192000101010101010101010101010101F1
:0E61A0000101010101010101010101010101E3
:0E61AE000101010101010101010101010101D5
:0E61BC000101010101010101010101010101C7
:0E61CA000101010101010101010101010101B9
:0E61D8000101010101000000000000000000B4
:0E61E6000000000000000000010101010101A5
:0E61F400010102020202020202010101010188
:0E620200010100020202020202020202020276
:0E62100002020202020200010101010101016D
:0E621E00020202020202020202020202020058
:0E622C00020202010101010101010101010153
:0E623A00010102020200010101010101020244
:0E62480002020202020202020202020002022E
:0E62560001010101010100010100010101012E
:0E626400010202000101010101010303030315
:0E627200030303020202020202000201010005
:0E628000010101010101010101010101010102
:0E628E000200010101010101030303030303E8
:0E629C000303030303030300020101010101D8
:0E62AA000101010101000001010001010200DB
:0E62B8000100000101010303030303030303BC
:0E62C6000303030303000201010101010101B2
:0E62D4000101000202000101010102000002AE
:0E62E200020001010202020202020203030393
:0E62F00003030300020101010101010001018D
:0E62FE00000202020001010102000202020081
:0E630C00010102020202020202000000000271
:0E631A00020002010101010101010101000266
:0E632800020202000000000202020200010157
:0E633600020202020202000202020000000047
:0E63440002010101000101010101000202023B
:0E635200020202020202020202000101030323
:0E636000030303030000020202020000020118
:0E636E0001010101010100000202020202020F
:0E637C000202020202020202000103030303F6
:0E638A000303030300000000020002010001F3
:0E6398000101010101000202020300020202E3
:0E63A6000202030002020001030303030303CB
:0E63B4000303030303000000020101010101C5
:0E63C2000101010002020200000202020002BC
:0E63D0000000020200010202020202020203A9
:0E63DE0003030303030002010101010100019A
:0E63EC0001000201010202020202020202028C
:0E63FA0001010001020202020202020202027E
:0E640800020202000202010001010101010076
:0E641600020101020002020002020002010166
:0E642400000102020202020202020202020251
:0E64320000000202020101010101010100024D
:0E644000020200000000000000020200010144
:0E644E00030303030303030202020200000023
:0E645C0000020202020202020202020002021A
:0E646A0002020202020202020001010103030B
:0E6478000303030303030303000202020000F8
:0E648600000000000000000000000000000008
:0E6494000000000000000101010103030303EA
:0E64A2000303030303030002020001000202D1
:0E64B0000001010101010101000202000100D2
:0E64BE000202020001010101010101010101C0
:0E64CC000103030300000001010100000001B4
:0E64DA000101010101010100000001010000AB
:0E64E80000000101010101010101010101019A
:0E64F60001010101010101010101010101018A
:0E65040001010101010101010101010101017B
:0E65120001010101010101010101010101016D
:0E65200001010101010101010101010101015F
:0E652E00010101010101010101010101010151
:0E653C00010101010101010101010101010143
:0E654A00010101000000000000000000000040
:0E65580000000000000001010101010101012D
:0E656600020202020202020101010101010112
:0E6574000002020202020202020202020202FF
:0E6582000202020200010101010101010202F8
:0E6590000202020202020202020202000202E3
:0E659E000201010101010101010101010101E0
:0E65AC000202020001010101010102020202CD
:0E65BA000202020202020202020002020101BB
:0E65C8000101010100010100010101010102B8
:0E65D60002000101010101010303030303039D
:0E65E400030202020202020002010100010194
:0E65F20001010101010000010101010102008F
:0E660000010000010101030303030303030370
:0E660E00030303030300020101010101010166
:0E661C00010100020200010001010200000263
:0E662A00020001010303030303030303030340
:0E663800030303000201010101010101010140
:0E664600000202020001010102000202020035
:0E66540001010202020202020203000003031F
:0E66620003000201010101010100010100021B
:0E66700002020200000000020202020001010C
:0E667E000202020202020200020200020200F8
:0E668C000201010101010101010100020202EF
:0E669A000202020202020202020001010202DA
:0E66A8000202020202000202000000000201D3
:0E66B6000101000101010100020202020202C4
:0E66C4000202020202020202000103030303AB
:0E66D2000303030200020202020002010101A2
:0E66E000010101010000020202030002020299
:0E66EE00020203000202000103030303030380
:0E66FC0003030300000202000201000101017D
:0E670A00010101000202020000020202000270
:0E671800000002020001030303030303030356
:0E672600030303000000020101010101010153
:0E673400010002010102020202020202020240
:0E67420001010001020202020202020303032F
:0E675000030303000201010101010001010029
:0E675E0002010102000202000202000201011B
:0E676C00000102020202020202020202020206
:0E677A00020002020100010101010101000202
:0E6788000202000000000000000202000101F9
:0E6796000202020202020202020202020000DD
:0E67A4000202020101010101010101000202D5
:0E67B2000202020202020202000101010303C0
:0E67C0000303030303020202020002000002B0
:0E67CE000202020202020202020200000000A9
:0E67DC0000000000000001010101030303039F
:0E67EA00030303030303000202020000000089
:0E67F800000000000000000000000000000093
:0E68060002000101010101010303030303036A
:0E681400030303030002020001010002020060
:0E68220001010101010002020001000202005A
:0E68300001010101010101010101010101034A
:0E683E00030300000001010100000001010140
:0E684C00010101000000010101000000010136
:0E685A00010101010101010101010101010122
:0E686800010101010101010101010101010114
:0E687600010101010101010101010101010106
:02688400010110
:0E68860025041A0B21141A230F2F132D0D1C9D
:0B68940024220B002F202A22280014D1
:0A689F0014F63C0A1E28CE14140063
:0E68A900204D696E6974656C2044656D6F202A
:0E68B7005465737420212028632948784332E9
:0568C50030303120001D
:0814160085825585835685F09F
:04141E0057AD52AEC6
:0414220053AF5485EB
:0614260055828556838506
:0C142C0057F0122FF1F83395E05403A2A2
:0E143800E0C813C813A2E0C813C813C8F974A3
:09144600022555FAE43556FBAC11
:0C144F00578A828B838CF0122FF1FA8AEE
:07145B00583395E0F55990AC
:0C14620069CFE493FC740193FAEC255868
:06146E00F55AEA3559F5BC
:031474005B855A3B
:0314770011855B81
:0C147A001288828983C005C006C00712DA
:0C1486003070AB82D007D006D0058B5828
:0C1492008D828E838FF0E558122DFD74C2
:09149E00012DF55CE43EF55D8FC3
:0814A7005E74012555FAE435DD
:0A14AF0056FCAB578A828C838BF049
:0E14B900122FF1FA3395E08A825403A2E0C5A7
:0E14C7008213C58213A2E0C58213C58213C52D
:0714D50082F583855A1185A1
:0914DC005B12C005C006C0071236
:0C14E5003070AA82D007D006D005855CCC
:0914F10082855D83855EF0EA123C
:0C14FA002DFD742825588D828E838FF004
:0A150600122DFD74322A855C8285E7
:061510005D83855EF00220
:021516002DFDA9
:0815180085821285831385F022
:0415200014E511902D
:0815240068CA93F51974402513
:04152C0011F5119014
:0815300068CA93F51A74012545
:0715380012FFE43513F8A9CE
:0C153F00148F82888389F0122FF1FEC205
:0A154B00D5E51930E704B2D5F40429
:0A155500F5F0EE30E704B2D5F4041F
:0E155F00A430D50AF42401C5F0F43400C5F020
:08156D00F51585F01674022546
:0715750012FBE43513FCAA90
:0B157C00148B828C838AF0122FF1F593
:0A1587001BC2D5E51A30E704B2D507
:02159100F40460
:0B159300F5F0E51B30E704B2D5F404CE
:0E159E00A430D50AF42401C5F0F43400C5F0E1
:0815AC00D39515F4B3F515E524
:0815B4001695F0F516A2E7C53B
:0615BC001533C51533C50F
:0815C20015540130E00244FE63
:0A15CA00F516C2D5E51A30E704B2A9
:0315D400D5F40447
:0A15D700F5F0EE30E704B2D5F4049D
:0E15E100A430D50AF42401C5F0F43400C5F09E
:0815EF00F51785F018C2D5E5DF
:0815F7001930E704B2D5F40439
:0B15FF00F5F0E51B30E704B2D5F40462
:0E160A00A430D50AF42401C5F0F43400C5F074
:051618002517F517E5A0
:08161D001835F0F518A2E7C52D
:061625001733C51733C5A1
:08162B0017540130E00244FEF7
:0A163300F518AD158F82888389F049
:0C163D00ED122DFDAE178B828C838AF01D
:04164900EE022DFD83
:08164D0085821285831385F0EC
:0416550014E51190F7
:0816590068CA93F517744025DF
:0416610011F51190DE
:0616650068CA93F5188528
:06166B0012828513838545
:0916710014F0122FF1FFC2D5E5BF
:08167A001730E704B2D5F404B7
:0A168200F5F0EF30E704B2D5F404F0
:0E168C00A430D50AF42401C5F0F43400C5F0F2
:08169A00F51585F01674022518
:0716A20012FEE43513FDA860
:0C16A900148E828D8388F0122FF1F9C29C
:0A16B500D5E51830E704B2D5F404BF
:0A16BF00F5F0E930E704B2D5F404B9
:0E16C900A430D50AF42401C5F0F43400C5F0B5
:0816D700D39515F4B3F515E5F8
:0816DF001695F0F516A2E7C50F
:0616E7001533C51533C5E3
:0816ED0015540130E00244FE37
:0A16F500F516C2D5E51830E704B27F
:0316FF00D5F4041B
:0A170200F5F0EF30E704B2D5F4046F
:0E170C00A430D50AF42401C5F0F43400C5F071
:0C171A00FFAAF0C2D5E51730E704B2D5F5
:02172600F404C9
:0A172800F5F0E930E704B2D5F4044F
:0E173200A430D50AF42401C5F0F43400C5F04B
:0E1740002FFFEA35F0FAA2E7CF33CF33CF54B4
:06174E000130E00244FE40
:06175400AB158512828531
:07175A0013838514F0EB126C
:0C1761002DFD8E828D8388F0EF022DFD9F
:08176D0085821285831385F0CB
:0417750014E51190D6
:0817790068CA93F517744025BE
:0417810011F51190BD
:0617850068CA93F5188507
:06178B0012828513838524
:0917910014F0122FF1FFC2D5E59E
:08179A001730E704B2D5F40496
:0A17A200F5F0EF30E704B2D5F404CF
:0E17AC00A430D50AF42401C5F0F43400C5F0D1
:0817BA00F51585F016740125F8
:0717C20012FEE43513FDA83F
:0C17C900148E828D8388F0122FF1F9C27B
:0A17D500D5E51830E704B2D5F4049E
:0A17DF00F5F0E930E704B2D5F40498
:0E17E900A430D50AF42401C5F0F43400C5F094
:0817F700D39515F4B3F515E5D7
:0817FF001695F0F516A2E7C5EE
:061807001533C51533C5C1
:08180D0015540130E00244FE15
:0A181500F516C2D5E51830E704B25D
:03181F00D5F404F9
:0A182200F5F0EF30E704B2D5F4044E
:0E182C00A430D50AF42401C5F0F43400C5F050
:0C183A00FFAAF0C2D5E51730E704B2D5D4
:02184600F404A8
:0A184800F5F0E930E704B2D5F4042E
:0E185200A430D50AF42401C5F0F43400C5F02A
:0E1860002FFFEA35F0FAA2E7CF33CF33CF5493
:06186E000130E00244FE1F
:06187400AB158512828510
:07187A0013838514F0EB124B
:0C1881002DFD8E828D8388F0EF022DFD7E
:08188D0085826685836785F002
:081895006874032566FDE435CB
:07189D0067FEAF6874072528
:0518A40066F579E43552
:0418A90067F57A85E0
:0518AD00687B740B25AF
:0518B20066F57CE43541
:0418B70067F57D85CF
:0318BB00687E75CF
:0218BE006900BF
:0C18C000C3E569648094834003021A4D64
:0718CC00E4FBB56902800E88
:0718D3007401B569028024D5
:0718DA007402B5695A803A5F
:0C18E1008D828E838FF0122FF1700E8527
:0618ED007C82857D8385ED
:0718F3007EF0122FF1603FAF
:0418FA007B01803BB3
:0C18FE008D828E838FF0122FF1700E850A
:06190A007982857A8385D5
:071910007BF0122FF16022B1
:041917007B01801EB2
:07191B00857982857A83853E
:081922007BF0122FF1700E851D
:06192A007C82857D8385AF
:071930007EF0122FF16002AE
:021937007B0132
:06193900EB7003021A48E6
:0C193F00C005C006C007E56975F003A4F0
:0A194B00FB246AF8E569FC3395E01F
:0D195500CC25E0CC33CC25E0CC33FAEC25DA
:0719620066FDEA3567FEAFE8
:0C196900688D828E838FF0122FF1F6EB58
:0C197500246AFB04F874012CFDE43AFE27
:09198100ED2566FDEE3567FEAFB1
:0C198A00688D828E838FF0122FF1F674AE
:0C199600022BF874022CFCE43AFAEC2559
:0719A20066FCEA3567FAADAF
:0C19A900688C828A838DF0122FF1F68B7F
:0A19B500027C007D40855F118A82EC
:0D19BF008C838DF0C003C005C006C0071268
:0E19CC001518D007D006D005D0038B027C0082
:0A19DA007D408561118A828C838DA7
:0E19E400F0C003C005C006C00712164DD007A4
:0D19F200D006D005D0038B027C007D40851F
:0A19FF0063118A828C838DF0C0030F
:0E1A0900C005C006C00712176DD007D006D06A
:0A1A170005D0037A007C40E5692544
:051A2100692473FD8D36
:051A260052755300752C
:0C1A2B0054408B828A838CF0C005C006FA
:0E1A3700C007121416D007D006D005D007D075
:031A450006D005C3
:051A480005690218C051
:0C1A4D008D828E838FF0122FF1601B74CD
:0A1A590075C0E07400C0E07440C0E6
:0E1A6300E090007375F040121FA915811581E7
:021A71001581DD
:071A7300857982857A8385E5
:081A7A007BF0122FF1601B74D8
:0A1A820077C0E07400C0E07440C0BB
:0E1A8C00E090007575F040121FA915811581BC
:021A9A001581B4
:071A9C00857C82857D8385B6
:081AA3007EF0122FF1601B74AC
:0A1AAB0073C0E07400C0E07440C096
:0E1AB500E090007775F040121FA91581158191
:021AC30015818B
:011AC50022FE
:0A1AC600C010858110C082C083C0EB
:0C1AD000F00581A81008740126FDE40850
:0C1ADC0036FE088607E5102404F87600AA
:0C1AE800A8100886820886830886F01289
:0C1AF4002FF1FBE5102404F8E6B5030018
:051B00004003021B83FD
